:100000000C94EC2A0C941D2B0C941D2B0C941D2B82
:100010000C941D2B0C941D2B0C941D2B0C941D2B40
:100020000C941D2B0C941D2B0C941D2B0C941D2B30
:100030000C941D2B0C941D2B0C941D2B0C941D2B20
:100040000C941D2B0C94149B0C941D2B0C941D2BA9
:100050000C941D2B0C941D2B0C940E920C94EE5BA7
:100060000C941D2B0C94E7470C941D2B0C941D2B0A
:100070000C941D2B0C941D2B0C941D2B0C941D2BE0
:100080000C941D2B0C941D2B0C941D2B0C941D2BD0
:100090000C941D2B0C941D2B0C941D2B0C941D2BC0
:1000A0000C941D2B0C941D2B0C941D2B0C941D2BB0
:1000B0000C941D2B0C941D2B0C941D2B0C941D2BA0
:1000C0000C941D2B0C941D2B0C941D2B0C941D2B90
:1000D0000C941D2B0C941D2B0C941D2B0C941D2B80
:1000E0000C941D2BE357E657D557D957DF571D58AA
:1000F000EA57EE57F457F857FC57025806580A5873
:100100001D58105814581858825AB25AB45AC15A25
:10011000C75ACA5AD25A0A5B0F5B145B1E5B285B34
:10012000A15B325B3A5B425B4C5B565B605B6F5B37
:10013000795BA15B835B8D5B975B6A927A92999204
:10014000A992C492C992CC92D192D492D992DC92C3
:10015000E192EB92084AD73B3BCE016E84BCBFFDD7
:10016000C12F3D6C74319ABD56833DDA3D00C77F87
:1001700011BED9E4BB4C3E916BAAAABE0000008020
:100180003F05A84CCDB2D44EB93836A9020C50B9AF
:10019000918688083CA6AAAA2ABE000000803F00DB
:1001A0004E414E494E495459494E46CDCCCC3D0A5C
:1001B000D7233C17B7D13877CC2B329595E6241F3F
:1001C000B14F0A000020410000C84200401C4620F8
:1001D000BCBE4CCA1B0E5AAEC59D7400407A10F3CB
:1001E0005A00A0724E18090010A5D4E80000E87665
:1001F00048170000E40B54020000CA9A3B000000BC
:10020000E1F505000080969800000040420F0000D4
:1002100000A08601000000102700000000E8030095
:100220000000006400000000000A0000000000015F
:1002300000000000002C76D888DC674F0823DFC15F
:10024000DFAE59E1B1B796E5E3E453C63AE651991A
:100250007696E8E6C28426EB898C9B62ED407C6F43
:10026000FCEFBC9C9F40F2BAA56FA5F490055A2AFA
:10027000F75C936B6CF9676DC11BFCE0E40D47FE06
:10028000F520E6B500D0ED902E03009435770500FB
:1002900080841E080000204E0A000000C80C333382
:1002A00033330F986E12831141EF8D2114893BE691
:1002B0005516CFFEE6DB18D1844B381BF77C1D901A
:1002C0001DA4BBE424203284725E228100C9F12483
:1002D000ECA1E53D2720746F6F206C6F6E67206581
:1002E0007874727573696F6E2070726576656E745E
:1002F00065640020636F6C6420657874727573693F
:100300006F6E2070726576656E74656400536C65FF
:1003100065702E2E2E00526573756D696E672070A4
:1003200072696E74007777772E6378737733642EF3
:10033000636F6D005761697420666F722075736515
:10034000722E2E2E004E6F206D6F76652E00456E3C
:10035000642066696C65206C697374004265676926
:100360006E2066696C65206C69737400534420705C
:1003700072696E74696E67206279746520004E6FD1
:1003800074205344207072696E74696E6700256929
:10039000206D696E2C2025692073656300444542F9
:1003A00055472044525952554E20454E41424C45E6
:1003B00044004445425547204543484F20454E415F
:1003C000424C4544004B494C4C45442E20002042B1
:1003D000403A0020403A00205400202F00202F00F7
:1003E00020423A00202F0020543A006F6B004865ED
:1003F0006174696E6720646F6E652E003F00205740
:100400003A0020453A00543A0048656174696E67C5
:100410002E2E2E0042656420646F6E652E002042F1
:100420003A0020453A00543A00426564204865612C
:1004300074696E672E007777772E637873773364ED
:100440002E636F6D007777772E6378737733642E22
:10045000636F6D204F66662E004649524D574152DC
:10046000455F4E414D453A4D61726C696E20312EAB
:10047000312E302046726F6D204172636869766557
:1004800020534F555243455F434F44455F55524CAF
:100490003A687474703A2F2F202E2E2E2050524F0F
:1004A000544F434F4C5F56455253494F4E3A312EAD
:1004B00030204D414348494E455F545950453A77A5
:1004C00077772E6378737733642E636F6D2045588A
:1004D0005452554445525F434F554E543A3120557E
:1004E0005549443A30303030303030302D303030B3
:1004F000302D303030302D303030302D3030303005
:1005000030303030303030300A007A5F6D696E3A0A
:100510002000795F6D696E3A2000785F6D696E3AF0
:1005200020004D31343520533C696E6465783E209F
:100530006F7574206F662072616E67652028302D9C
:1005400031290053657474696E6720547261766551
:100550006C20416363656C65726174696F6E3A20EB
:100560000053657474696E672052657472616374B8
:1005700020416363656C65726174696F6E3A200037
:1005800053657474696E67205072696E742041639C
:1005900063656C65726174696F6E3A2000536574AF
:1005A00074696E67205072696E7420616E642054A5
:1005B000726176656C20416363656C657261746914
:1005C0006F6E3A20006C636420636F6E74726173A7
:1005D000742076616C75653A20004D3330302053BD
:1005E00036353920503230300A4D333030205336D2
:1005F00039382050323030004F66667365742061A0
:1006000070706C6965642E004D3330302053343087
:100610002050323030004572723A20546F6F20669D
:1006200061722100546F6F206661722066726F6D77
:10063000207265666572656E636520706F696E74A1
:1006400000220A00556E6B6E6F776E20636F6D6DC2
:10065000616E643A2022002200656E7175657565D1
:10066000696E6720220062696E004D313137204982
:100670004E56414C494420444154412E004D3131A5
:1006800037205072696E74696E672E2E2E004730C7
:10069000205A2573004732382058302059300047FF
:1006A00030205A257300473932205A2573204525BA
:1006B000730062696E0046696C652064656C6574E0
:1006C00065643A0044656C6574696F6E20666169A3
:1006D0006C65642C2046696C653A20006F70656E0D
:1006E000206661696C65642C2046696C653A20005F
:1006F000205A3A0020593A0020436F756E742058F2
:100700003A200020453A00205A3A0020593A005831
:100710003A004B494C4C45442E2000202D20496E78
:1007200076616C6964206578747275646572206E98
:10073000756D6265722021002020506C616E6E65BF
:100740007242756666657242797465733A2000205C
:1007500046726565204D656D6F72793A20004A7565
:100760006E203330203230313800436F6D70696C49
:1007700065643A20002843522D323032306C616E6D
:1007800067756167652900207C20417574686F7208
:100790003A2000323031352D31322D303120313296
:1007A0003A303000204C6173742055706461746578
:1007B000643A200020004D61726C696E0020536F16
:1007C00066747761726520526573657400205761A5
:1007D000746368646F6720526573657400204272A9
:1007E0006F776E206F7574205265736574002045B5
:1007F000787465726E616C20526573657400506F19
:100800007765725570007374617274006572726FEF
:10081000722077726974696E6720746F2066696CE4
:100820006500656E6473746F7073206869743A2034
:100830005A00205A3A00656E6473746F70732068B2
:1008400069743A20590020593A00656E6473746FD8
:100850007073206869743A20580020583A00656E19
:100860006473746F7073206869743A20006F6B0052
:10087000446F6E6520736176696E672066696C658A
:100880002E004D323900456E676C69736800456E05
:10089000676C69736800456E676C697368004368CC
:1008A000696E65736500FDFE004368696E6573657A
:1008B00000BADDC4DBB0D900D8D900436F6E7472C2
:1008C0006F6C00B6BFB8C4DE00416363656C004165
:1008D0006363656C005678792D6A65726B00567893
:1008E000792D6A65726B005678792D6A65726B0096
:1008F000567A2D6A65726B00567A2D6A65726B00A6
:10090000567A2D6A65726B0056652D6A65726B00AA
:1009100056652D6A65726B0056652D6A65726B00AF
:10092000566D6178207800566D6178207800566D9C
:100930006178207800566D6178207900566D617875
:10094000207900566D6178207900566D6178207AA3
:1009500000566D6178207A00566D6178207A0056D5
:100960006D6178206500566D6178206500566D6177
:1009700078206500566D696E00566D696E00566D83
:10098000696E005654726176206D696E005654721D
:100990006176206D696E005654726176206D696EC5
:1009A00000416D6178207800416D617820780041C8
:1009B0006D6178207800416D6178207900416D612A
:1009C00078207900416D6178207900416D6178204F
:1009D0007A00416D6178207A00416D6178207A005B
:1009E000416D6178206500416D6178206500416D41
:1009F0006178206500412D726574726163740041F5
:100A00002D7265747261637400412D726574726138
:100A1000637400412D74726176656C00412D7472AF
:100A20006176656C00412D74726176656C00587357
:100A3000746570732F6D6D005873746570732F6DCE
:100A40006D005873746570732F6D6D005973746504
:100A500070732F6D6D005973746570732F6D6D0019
:100A60005973746570732F6D6D005A73746570736C
:100A70002F6D6D005A73746570732F6D6D005A730E
:100A8000746570732F6D6D004573746570732F6D91
:100A90006D004573746570732F6D6D0045737465DB
:100AA00070732F6D6D00456E676C697368004368E5
:100AB000696E65736500436F6E74726F6C0041639D
:100AC00063656C005678792D6A65726B00567A2DD5
:100AD0006A65726B0056652D6A65726B00566D61B2
:100AE00078207800566D6178207900566D61782005
:100AF0007A00566D6178206500566D696E00565417
:100B0000726176206D696E00416D617820780041D8
:100B10006D6178207900416D6178207A00416D61C6
:100B200078206500412D7265747261637400412DF7
:100B300074726176656C005873746570732F6D6D97
:100B4000005973746570732F6D6D005A73746570FE
:100B5000732F6D6D004573746570732F6D6D002E6E
:100B60000A0046696C652862696E292064656C65B7
:100B70007465640044656C6574696F6E2862696EA3
:100B800029206661696C6564004D3234004D323352
:100B9000202573006175746F25692E67005772698F
:100BA00074696E6720746F2066696C653A20002E48
:100BB0000A006F70656E206661696C65642C204662
:100BC000696C653A20002E0A0046696C65207365E1
:100BD0006C6563746564002053697A653A20004649
:100BE000696C65206F70656E65643A20006F706592
:100BF0006E206661696C65642C2046696C653A20DC
:100C0000006F70656E206661696C65642C204669B2
:100C10006C653A20004E6F772066726573682066B7
:100C2000696C653A20004E6F7720646F696E6720AB
:100C300066696C653A20002220706F730022207074
:100C40006172656E743A2200535542524F555449B1
:100C50004E452043414C4C207461726765743A22C2
:100C6000004B494C4C45442E2000747279696E67E4
:100C700020746F2063616C6C207375622D67636FE5
:100C800064652066696C6573207769746820746F89
:100C90006F206D616E79206C6576656C732E204DCA
:100CA0004158206C6576656C2069733A0053442086
:100CB00063617264206F6B006F70656E526F6F744A
:100CC000206661696C656400766F6C756D652E6970
:100CD0006E6974206661696C6564004572726F723A
:100CE0003A00534420696E6974206661696C00FFA4
:100CF000E0FFD11000FFFEFFD0FFE0FFC1FFD1E217
:100D000040A0C8A6A22FF800238127AC00AFFF6443
:100D1000A5FF64FF64A4FFD0FFFE000021002400B3
:100D200027002A002D0030003300010100000401DB
:100D300007010A0100002200250028002B002E00D8
:100D40003100340002010000050108010B01000020
:100D500020002300260029002C002F003200000173
:100D6000000003010601090105050505070508083E
:100D70000808020202020A0A080804040404010125
:100D8000010101010101030303030303030304073A
:100D900007070C0C0C0C0C0C0C0C020202020606D1
:100DA0000606060606060B0B0B0B0B0B0B0B0102C4
:100DB000102020080810204010204080020102016D
:100DC0000804020101020408102040808040201025
:100DD000080402018004020180402010080402017E
:100DE00008040201010204081020408001020408E6
:100DF0001020408000000A0B02090C0D0E080703AA
:100E000004010000000000000000000000000000DD
:100E100000000000000000000000000000000000D2
:100E2000121110000000000000000000000000008F
:100E3000000000000000000000006563686F3A00D9
:100E40002E0A006F70656E206661696C65642C20E7
:100E500046696C653A200057726974696E67207440
:100E60006F2066696C653A20004572726F72207758
:100E7000726974696E6720746F20454550524F4DFA
:100E80002100206279746573290053657474696E5A
:100E900067732053746F7265642028002062797430
:100EA000657329002073746F7265642073657474B0
:100EB000696E67732072657472696576656420284F
:100EC000000920000920002D2D2D2E2D2D002D2D67
:100ED0002D002D2D2D002D2D2D002D2D3A2D2D00E9
:100EE000000000000000000000000000003FFFF0D4
:100EF000000000000000000000000000003800704A
:100F00000000000000000000000000000030FC3085
:100F10000000000000000000000000000020FC10A5
:100F20000000000000000000000000000020781019
:100F30000000000000000000000000000020301051
:100F40001EF0C6318000000000000000002C00D020
:100F50002249294A401FE00000104100002E31D0F4
:100F60002048290A403FF00000082080002F7BD055
:100F700020704912403FF00000082080002F7BD0F5
:100F800020508922403FF00000104100002E31D057
:100F900022490942401FE00000208200002C00D0BE
:100FA0001CEDE679801FE0000041040000203010B5
:100FB00000000000003FF000004104000020781015
:100FC00000000000003FF000002082000020FC1024
:100FD00000000000003FF000001041000030FC3035
:100FE00000000000000FC00000000000003800708A
:100FF000000000000007800000FFFFC0003FFFF07E
:10100000000000000003000000FFFFC0000000001F
:10101000000000000000000000000000003FFFF0A2
:101020000000000000000000000000000038007018
:1010300000000000000000000000000000338730C6
:101040000000000000000000000000000027879062
:10105000000000000000000000000000002F87D00A
:10106000000000000000000000000000002F87D0FA
:101070001EF0C6318000000000000000002F03D0E9
:101080002249294A401FE00000082080002030103B
:101090002048290A403FF00000041040002078104A
:1010A00020704912403FF0000004104000207810EA
:1010B00020508922403FF00000082080002030109E
:1010C00022490942401FE00000104100002F03D0D8
:1010D0001CEDE679801FE00000208200002F87D001
:1010E00000000000003FF00000208200002F87D0A9
:1010F00000000000003FF000001041000027879032
:1011000000000000003FF00000082080003387301E
:1011100000000000000FC000000000000038007058
:10112000000000000007800000FFFFC0003FFFF04C
:10113000000000000003000000FFFFC000000000EE
:10114000473238205830205930004730205A257314
:10115000004D31303920532569004D313430205352
:101160002569004D3130362053323535004D313050
:101170003920532569004D3139302053256900B994
:10118000DEDDC3DDC6B2C4DEB300BBBCBD0041754D
:10119000746F20686F6D6500426564204175746FDF
:1011A000204C6576656C696E6700CFD0004265643F
:1011B000204175746F204C6576656C696E6700D34D
:1011C000B0C0B0C3DEDDB9DEDD20B5CC00B5B6B74A
:1011D000B8B9BA0044697361626C65207374657054
:1011E0007065727300CCA8D7D2DDC4BAB3B6DD0087
:1011F0009FE4E0E1004368616E67652066696C61A9
:101200006D656E7400504C4120D6C8C200C3C42026
:10121000504C41005072656865617420504C41002B
:1012200041425320D6C8C200C3C42041425300509B
:101230007265686561742041425300B6C8C2C3B28A
:10124000BC00C8C900436F6F6C646F776E00BCDE72
:10125000B8B2C4DEB300C1B2CE004D6F7665206176
:101260007869730058BCDEB820B2C4DEB300C1B2E6
:101270002058004D6F766520580059BCDEB820B26A
:10128000C4DEB300C1B22059004D6F76652059000D
:101290005ABCDEB820B2C4DEB300C1B2205A004D41
:1012A0006F7665205A00B4B8BDC4D9B0C0DEB000B6
:1012B000CCADBA0045787472756465720020313027
:1012C0006D6D20B2C4DEB300C1B22031306D6D004F
:1012D0004D6F76652031306D6D002020316D6D20B1
:1012E000B2C4DEB300C1B220316D6D004D6F7665C2
:1012F00020316D6D00302E316D6D20B2C4DEB30033
:10130000C1B220302E316D6D004D6F766520302ECC
:10131000316D6D004C6F616400B89E004C6F61646C
:1013200000556E4C6F6164009D9E00556E4C6F6160
:1013300064004175746F20686F6D65004732380036
:10134000426564204175746F204C6576656C696EEA
:10135000670044697361626C6520737465707065C1
:101360007273004368616E67652066696C616D65C4
:101370006E74005072656865617420504C41005075
:101380007265686561742041425300436F6F6C64FD
:101390006F776E004D3834004578747275646572ED
:1013A000004D6F76652061786973004D6F7665201A
:1013B00058004D6F76652059004D6F7665205A00B4
:1013C0004578747275646572004D6F7665203130B2
:1013D0006D6D004D6F766520316D6D004D6F7665DA
:1013E00020302E316D6D004C6F6164004731204616
:1013F0003135302045313530004D313039205332D0
:101400003035004739322020453000556E4C6F6131
:1014100064004731204631353020452D31353000CC
:101420004D31303920533230350047393220204594
:1014300030007C3C3E5E2B3D3F2F5B5D3B2C2A22E7
:101440005C00B6B0C4DE20BFB3C6ADB3BBDACFBC60
:10145000C000A8A9AAAB004361726420696E7365DD
:101460007274656400B6B0C4DEB6DEB1D8CFBEDD3E
:1014700000A8A9ACAD00436172642072656D6F76FF
:101480006564004361726420696E7365727465649B
:1014900000436172642072656D6F76656400457209
:1014A000723A204368616E67652046696C616D65BC
:1014B0006E74005072696E7420706175736564009B
:1014C0004572723A204368616E67652046696C61B7
:1014D0006D656E740000060900FE0701910320206F
:1014E000FFFF08FF07FF00000006000001070706D6
:1014F000020080808080800080030202060105A037
:10150000A00507070600005050F850F85050050796
:10151000070600002078A07028F0200507070600C5
:1015200000C0C8102040981805070706000060900A
:10153000A040A89068020303060104C0408003078E
:101540000706010020408080804020030707060135
:10155000008040202020408005050506000120A8CD
:1015600070A8200505050600012020F820200203B0
:10157000030602FFC04080050101060003F80202D5
:1015800002060200C0C00505050600010810204043
:1015900080050707060000708898A8C888700307B0
:1015A0000706010040C040404040E0050707060034
:1015B00000708808708080F8050707060000F810A2
:1015C00020100808F005070706000010305090F8BA
:1015D0001010050707060000F880F008088870055D
:1015E0000707060000304080F0888870050707066E
:1015F0000000F808102020202005070706000070D2
:1016000088887088887005070706000070888878C9
:10161000081060020505060200C0C000C0C0020636
:10162000060602FFC0C000C0408004070706000095
:1016300010204080402010050303060002F800F847
:10164000040707060100804020102040800507079E
:10165000060000708808102000200506060600001D
:1016600070880868A870050707060000708888F869
:10167000888888050707060000F08888F08888F0C9
:1016800005070706000070888080808870050707BE
:10169000060000E09088888890E0050707060000B3
:1016A000F88080F08080F8050707060000F8808049
:1016B000F0808080050707060000708880B8888861
:1016C00070050707060000888888F8888888010761
:1016D0000706020080808080808080050707060062
:1016E0000038101010109060050707060000889061
:1016F000A0C0A09088050707060000808080808039
:1017000080F805070706000088D8A888888888051B
:1017100007070600008888C8A89888880507070674
:10172000000070888888888870050707060000F028
:101730008888F08080800507070600007088888808
:10174000A89068050707060000F08888F0A0908838
:10175000050707060000788080700808F005070775
:10176000060000F8202020202020050707060000A2
:101770008888888888887005070706000088888818
:10178000888850200507070600008888888888A870
:1017900050050707060000888850205088880507F4
:1017A00007060000888888502020200507070600CB
:1017B00000F80810204080F8030707060100E080C9
:1017C00080808080E005050506000180402010082B
:1017D000030707060100E02020202020E005030386
:1017E000060004205088050101060000F8020202EC
:1017F0000602058040050505060000700878887817
:101800000507070600008080B0C88888F005050538
:101810000600007080808870050707060000080831
:1018200068988888780505050600007088F880703B
:101830000507070600003048E04040404005060626
:101840000600FF708888780870050707060000808A
:1018500080B0C88888880107070602008000808061
:101860008080800308080601FF200020202020A09F
:1018700040040707060000808090A0C0A0900307E6
:1018800007060100C04040404040E0050505060055
:1018900000D0A8A8A8A8050505060000B0C888883B
:1018A000880505050600007088888870050606060C
:1018B00000FFF08888F080800506060600FF788823
:1018C00088780808050505060000B0C880808005F6
:1018D000050506000070807008F005070706000087
:1018E0004040E040404830050505060000888888F3
:1018F00098680505050600008888885020050505BC
:101900000600008888A8A850050505060000885034
:101910002050880506060600FF888888780870052C
:101920000505060000F8102040F80307070601002F
:101930002040408040402001070706020080808050
:1019400080808080030707060100804040204040DF
:1019500080050202060003689000000006000000F7
:101960000000060000000000060000000000060065
:10197000000000000600000000000600000000005B
:101980000600000000000600000000000600000045
:101990000000060000000000060000000000060035
:1019A000000000000600000000000600000000002B
:1019B0000600000000000600000000000600000015
:1019C0000000060000000000060000000000060005
:1019D00000000000060000000000060000000000FB
:1019E00006000000000006000000000006000000E5
:1019F00000000600000000000600000000000600D5
:101A000000000000060000000000060000000000CA
:101A100006000000000006000000000006000005AF
:101A20000303060002F800F8050606060000F808A1
:101A300028302040050707060000F808283020203D
:101A400040040505060000102060A02005070706D9
:101A5000000008102060A0202005050506000020D9
:101A6000F888083005070706000020F88888081065
:101A700020050404060000F82020F80506060600EC
:101A800000F820202020F805050506000010F83099
:101A9000509005070706000010F810305090100510
:101AA000050506000040F8485040050707060000FD
:101AB000280040F848504005070706000020F8209D
:101AC000F8202020050808060000280020F820F84B
:101AD0002020040606060000407090101020050823
:101AE0000806000028004070901010200506060629
:101AF000000040789010102005080806000028001B
:101B0000407890101020050505060000F808080828
:101B1000F80507070600002800F8080808F8050778
:101B2000070600FF50F85050102040050909060034
:101B3000FF280050F850501020400506060600000F
:101B4000C008C80810E00508080600002800C00802
:101B5000C80810E0050606060000F80810205088A6
:101B60000508080600002800F8081020508805061F
:101B70000606000040F848504078050808060000B6
:101B8000280040F84850407804040406000110D0B2
:101B900010E0050707060000280008C80810E00547
:101BA00007070600FF207888281028400509090645
:101BB00000FF280020788828102840050606060027
:101BC00000F020F82040800508080600002800F0FA
:101BD00020F8204080040505060001C010D010E068
:101BE000050606060000C008C80810E0050808063B
:101BF00000002800C008C80810E00506060600001E
:101C00007000F82020400508080600002800700039
:101C1000F8202040030707060100808080C0A080D4
:101C20008004080806010050008080C0A080800564
:101C300007070600002020F8202040800506060641
:101C400000007000000000F8050606060000F80815
:101C5000502050800507070600FF20F8081020706C
:101C6000A80307070601002020202020408005054A
:101C700005060000108888888805070706000028E8
:101C800000108888888805080806000018180010C9
:101C9000888888880507070600008080F880808093
:101CA00078050808060000288080F8808080780584
:101CB0000808060000189880F880808078050606DD
:101CC000060000F80808081060050808060000284B
:101CD00000F808080810600508080600001818F841
:101CE000080808106005050506000140A010080856
:101CF000050707060001280040A01008080507078F
:101D0000060001181840A010080805060606000085
:101D100020F82020A8A8050808060000280020F8C0
:101D20002020A8A8050808060000181820F8202080
:101D3000A8A8050606060000F808085020100406AA
:101D400006060100E000E000E010050606060000BF
:101D500020408090F808050606060000080850207C
:101D600050800506060600007820F8202038050778
:101D7000070600004040F8485040400507070600AD
:101D80000040F8485040404005050506000070102E
:101D90001010F8050707060000701010101010F85A
:101DA000040505060100F010F010F0050707060015
:101DB00000F80808F80808F8050606060000700094
:101DC000F8081020030606060100A0A0A0A02040ED
:101DD00005060606000050505050589004060606AE
:101DE000010080808090A0C0050606060000F888EB
:101DF0008888F888050505060000F8880810600541
:101E00000606060000F888080810600506060600A9
:101E10000010F85050F810050606060000F80850AB
:101E20006040F8050606060000F808F808102005CE
:101E300006060600008040080810E00508080600B5
:101E400000280020F8880818200506060600004033
:101E5000F84848889004050506010080F0A020207D
:101E60000508080600002800F88808081060050822
:101E700008060000280010F85050F8100507070663
:101E800000002800F8102020F805080806000028A7
:101E900000F808F8081020020202060202C0C0057D
:101EA0000101060003F80505050600018040201029
:101EB00008050606060001288040201008050707CF
:101EC000060000F8080808080808000C0B00FE07C8
:101ED0000192032120FFFF0AFF07FF000000060018
:101EE0000A010707060200808080808000800302CC
:101EF00002060105A0A00507070600005050F85093
:101F0000F850500507070600002078A07028F02040
:101F1000050707060000C0C81020409818050707ED
:101F20000600006090A040A8906802030306010428
:101F3000C0408003070706010020408080804020C9
:101F4000030707060100804020202040800505058A
:101F500006000120A870A820050505060001202024
:101F6000F820200203030602FFC04080050101069D
:101F70000003F8020202060200C0C00505050600C3
:101F8000010810204080050707060000708898A807
:101F9000C8887003070706010040C040404040E089
:101FA000050707060000708808708080F80507079D
:101FB000060000F81020100808F0050707060000CA
:101FC00010305090F81010050707060000F880F058
:101FD00008088870050707060000708080F0888870
:101FE00070050707060000F80810202020200507CC
:101FF000070600007088887088887005070706004B
:102000000070888878080870020505060200C0C0C4
:1020100000C0C00206060602FFC0C000C040800427
:10202000070706000010204080402010050303062B
:102030000002F800F8040707060000804020102086
:102040004080050707060000708808102000200562
:10205000070706000070880868A8A870050707062B
:102060000000708888F8888888050707060000F057
:102070008888F08888F0050707060000708880804F
:10208000808870050707060000F08888888888F037
:10209000050707060000F88080F08080F805070734
:1020A000060000F88080F0808080050707060000A9
:1020B000708880B8888870050707060000888888BF
:1020C000F888888801070706020080808080808069
:1020D00080050707060000381010101090600507F3
:1020E000070600008890A0C0A0908805070706009A
:1020F00000808080808080F805070706000088D86F
:10210000A8888888880507070600008888C8A898D6
:102110008888050707060000708888888888700509
:102120000707060000F08888F08080800507070612
:10213000000070888888A89068050707060000F0EE
:102140008888F0A0908805070706000078808070D6
:102150000808F0050707060000F8202020202020AE
:1021600005070706000088888888888870050707A3
:102170000600008888888888502005070706000028
:102180008888888888A85005070706000088885036
:10219000205088880507070600008888885020207E
:1021A00020050707060000F80810204080F8030704
:1021B00007060000E08080808080E00505050600BD
:1021C000018040201008030707060000E0202020BF
:1021D0002020E005030306000420508805010106C5
:1021E0000000F8020202060205804005050506000F
:1021F0000070087888780507070600008080B0C85E
:102200008888F00505050600007080808870050745
:102210000706000008086898888878050505060004
:10222000007088F880700507070600003048E0401D
:102230004040400506060600FF7088887808700553
:1022400007070600008080B0C88888880107070655
:102250000200800080808080800308080601FF2043
:102260000020202020A04004070706010080809065
:10227000A0C0A090030707060100C04040404040B6
:10228000E0050505060000D0A8A8A8A805050506D4
:102290000000B0C888888805050506000070888899
:1022A00088700506060600FFF08888F08080050625
:1022B000060600FF788888780808050505060000EE
:1022C000B0C880808005050506000070807008F0A9
:1022D0000407070600004040E04040403005050587
:1022E000060000888888986805050506000088882B
:1022F0008850200505050600008888A8A850050517
:102300000506000088502050880506060600FF8854
:102310008888780870050505060000F8102040F848
:1023200003070706010020404080404020010707C6
:1023300006020080808080808080030707060100FD
:102340008040402040408005020206000368900063
:10235000000006000A0000000C000A0000000C004B
:102360000A0000000C000A0000000C000A00000037
:102370000C000A0000000C000A0000000C000A001B
:1023800000000C000A0000000C000A0000000C0015
:102390000A0000000C000A0000000C000A00000007
:1023A0000C000A0000000C000A0000000C000A00EB
:1023B00000000C000A0000000C000A0000000C00E5
:1023C0000A0000000C000A0000000C000A000000D7
:1023D0000C000A0000000C000A0000000C000A00BB
:1023E00000000C000A0000000C000A0000000C00B5
:1023F0000A0000000C000A0000000C000A000000A7
:102400000C000A0B0B160C00FF8FC048404FC00891
:1024100040CFC048004B4048804E40B0008FE00B9A
:102420000B160C00FF2040AA4071402040FA4031BA
:10243000406840A1E0AE40204020400B0B160C004D
:10244000FF20002000FDE025202520252025202537
:1024500020452045E099200B0B160C00FF03C0FC23
:102460000004007FC004000400FFE0040004000436
:10247000001C000B0B160C00FF0000000000000009
:10248000000040FFE0000000000000000000000B22
:102490000B160C00FF0040FFE004000400070004DE
:1024A00080044004000400040004000B0B160C0020
:1024B000FF240024002FE0B400A480A4A0AAC02020
:1024C000802880294032400B0B160C00FF04808FBF
:1024D000E0490019002FC0090009002FC0490089F8
:1024E000000FE00B0B160C00FF10003F8051000E98
:1024F000003180C0603F8024803F8024803F800B7B
:102500000B160C00FF2280FA4007E0FA808A808ACE
:1025100080FA802280B280AAA064E00B0B160C0027
:10252000FF222047409280EFE0220047C0EC4007A6
:10253000C03440C7C004400B0B160C00FF08000F4E
:10254000C008000800FFE008000E000980084008ED
:102550000008000A0B160C00FFFF8000800080803E
:10256000808080FF8080008000804080407FC00BA2
:102570000B160C00FF47C04100EFE0410045006929
:1025800060C9204D6049204FE0C8200B0B160C009D
:10259000FF0800040004000A000A000A00110011EC
:1025A000002080404080200B0B160C00FF224022B0
:1025B00000F7E0220023E03520E52025402880298F
:1025C0004072200B0A140C00004440444044407FF9
:1025D000C004000400842084208420FFE00B0B163C
:1025E0000C00FF040000007FC00400040004007F12
:1025F000C0040004000400FFE00B0B160C00FFFFFA
:10260000E0110001C0FE00488025000400FFE01535
:10261000002480C4600B0B160C00FF11007FC04427
:10262000407FC044407FC00400FFE0040004000479
:1026300000090B160C00FF1000FF8080808080FFD7
:102640008080808080FF8080808080FF800B0B16E0
:102650000C00FF7100010003E0F92021204120510E
:10266000208920FA20022004C00B0B160C00FF7FEB
:10267000C01100110011001100FFE0110011002134
:1026800000210041000B0B160C00FF21002200F47A
:102690004057E0502057C094405440244057C094C5
:1026A000400B0B160C00FF11000A007FC004000451
:1026B00000FFE004000A0011002080C0600A0B1631
:1026C0000C00FF5FC0004084408440BF4084408CC9
:1026D000409440A4408C4081C00B0B160C00FF249A
:1026E0000027C024002400FFE0000014402480479D
:1026F000000C0070000B0B160C00FF248004800FF0
:10270000C0E48024803FE024802480288050008F13
:10271000E00B0B160C00FF08000800FF8088808883
:1027200080FF8088808880FFA0882007E00B0B1640
:102730000C00FF27802480F480248074806C80A4A7
:1027400080248024A028A030600A0B160C00FFFF14
:10275000C0804080409E40924092409E4080408099
:1027600040FFC080400B0B160C00FF7FC044005F91
:10277000C050405FC050405FC042004A805240A6F7
:10278000200B0B160C00FF040007E004007FC04084
:1027900040404040407FC00000524089200B0B1653
:1027A0000C00FF4780248004800480E86020002F14
:1027B000C024402280310026C00B0B160C00FF7F86
:1027C000C04A407FC00400FFE004003F8020802416
:1027D000802480FFE00B0B160C00FF22004FE04826
:1027E000204FE0C8004FE04AA05AA06FE04AA0483E
:1027F000600B0B160C00FFF3C024402A80F100226E
:102800008065E07220A540208023002C000B0B1671
:102810000C00FF0400FFE080200000FFE004002423
:102820000027C0240054008FE00B0B160C00FF7330
:10283000E01080510023E0FA202AA022A022A0204C
:1028400080214062200B0B160C00FF2200F7802233
:10285000803680E2A025A0246068200000524089D4
:10286000200B0B160C00FF73C0420042007BE04AB5
:10287000404A407A404A404240444088400B0B1650
:102880000C00FF0800FFE008001FC030405FC09050
:10289000401FC01040104010C00B0B160C00FF0270
:1028A000007FE0420042005FC0420047004A805281
:1028B00040622082000B0B160C00FFF3C096409183
:1028C00080A660A10097C091009500E7E08100819B
:1028D000000B0B160C00FF0F8088804F8008808F44
:1028E0008040001FC03540554095403FE00B0B161F
:1028F0000C00FF27E02080F880208020803880E0D6
:102900008020802080208061800B0B160C00FF1F30
:10291000E0910057C0144017C0944057C0110055B3
:1029200040992023000B0B160C00FF208027E0F2BB
:1029300040218022403420E2402240224022406454
:10294000400B0B160C00FF410041004FE0E920490D
:102950002049206FE0C92049204920CFE00B0B1609
:102960000C00FF2100F1004FE0A920F9202FE039F1
:1029700020E92029202FE028200B0B160C00FF8FC8
:10298000E049200920CBA049204FE048204BA04A35
:10299000A06BA050E00B0B160C00FF7FC00400449E
:1029A00040244024800400FFE004000400040004EC
:1029B000000B0B160C00FF820042001FE0C2005FFC
:1029C000C052405FC047004A805240BFE00B0B1628
:1029D0000C00FF04007FE048807FE048804F80408B
:1029E000005FC04840478098600B0B160C00FF0149
:1029F00000EFE0A100A440AFE0A440AFE0A920E9CF
:102A00002002800C600B0B160C00FF14C0F6A0BC5B
:102A100060A780A880BFE0A920EFE009200FE009AF
:102A2000200B0B160C00FF7F804080428062805498
:102A3000804880488054A062A0406080200B0B1624
:102A40000C00FF04007FE040207FE040007DE05468
:102A5000204CA0546064A08D600B0B160C00FF820C
:102A6000005FE0040008409FE040200A800A804A9E
:102A7000A092A022600B0B160C00FF41004FE0E873
:102A800020428044406820C7C0410041004100CF3F
:102A9000E00B0B160C00FF50207D209120FF201131
:102AA000207D205520552054205C2010E00B0B1673
:102AB0000C00FF3F8020803F802080FFE048007BAB
:102AC000C0494079404880FB600B0B160C00FF04A6
:102AD0000004000400248024404440442084200456
:102AE0000004001C000B0B160C00FF040004000483
:102AF00000FFE004000A000A00110011002080C05D
:102B000060090A140A0000888049000800FF80005C
:102B10008000807F8000800080FF800B0B160C00FF
:102B2000FF21001200FFE0000078804A807A804A8E
:102B3000807A80488059800B0B160C00FF27C0005C
:102B4000000000EFE02100220024402FE020205070
:102B5000008FE00B0B160C00FF20802700F90021EE
:102B6000C077002100F9E027007120A92020E00BA8
:102B70000B160C00FF10401040FDE0104038C0352F
:102B800040524094401040104010C00B0B160C00F7
:102B9000FF0040F8400BE00840884052405140217F
:102BA000405040484089C00A0B160C00FF84008446
:102BB000408480F5008600840084009400A440C412
:102BC0004083C00B0B160C00FF11207D001100FF8D
:102BD000E02900FD4049407C8008A0FD600A200BF0
:102BE0000B160C00FF17C02440244067C0A1002F23
:102BF000E0210023802540292021000B0B160C002A
:102C0000FF0800FFE0100027C020806100AFE02136
:102C1000002100210023000B0B160C00FF24002FC5
:102C2000E0B400A480A4A0AAC02A80288029403251
:102C30004024200B0B160C00FF7FE080003FC020DB
:102C4000403FC010001FC010402880470038E00BF4
:102C50000B160C00FF7FE0400040004000400040A9
:102C600000400040004000400080000B0B160C00AC
:102C7000FFFFE004007FC044407FC044407FC04469
:102C80000024001800E7E00B0B160C00FF11E0FD1C
:102C900000450029E0FD4011407D40114055409223
:102CA0004034400B0B160C00FF21005FE04000CFCA
:102CB000C040004FC040004FC048404FC048400B8C
:102CC0000B160C00FF04007FC040407FC040407FD7
:102CD000C040407FC004405220BFA00B0B160C0028
:102CE000FF7FC044407FC044407FC004001B00E021
:102CF000E01100110061000B0B160C00FFFFE00457
:102D00000008007FE049204F2049204F20492049FA
:102D1000207FE00B0B160C00FFFDE0564079403899
:102D20008055409220FFE0040027C02400FFE00B04
:102D30000B160C00FFFB8052007BE01240FA40149F
:102D4000403F8020803F8020803F800B0B160C008E
:102D5000FF1FE0200027C06440A7C020002FE0280C
:102D60002027C0210023000B0B160C00FFF3E0828C
:102D7000208220FA20822082208A20B220C2E00213
:102D80000002000B0B160C00FF248046A095C0E447
:102D90008027E04480F5C006A03480C48007E00BA3
:102DA0000B160C00FF27C0410087E0E02022804581
:102DB00080F2800FE03080C14002200B0B160C0027
:102DC000FF02000200220023C02200220022002273
:102DD0000022002200FFE0090B160C00FF03E04078
:102DE00000BF403FC020403FC010003FC050800F98
:102DF0000070E00B0B160C00FF04004440444044FC
:102E0000407FC004000400842084208420FFE00B65
:102E10000B160C00FF7FC0040004000400FFE00A52
:102E2000000A0012002220422081E00B0B160C0049
:102E3000FF00007FE04000400040004000400040B4
:102E4000004000400040000B0B160C00FF478024A0
:102E50008004800480E86020002FC024402280315C
:102E60000022800B0B160C00FF7FC04A407FC0047D
:102E700000FFE004003F80208020802480FFE00BE2
:102E80000B160C00FF0400040004007FC044404403
:102E90004044407FC04440040004000B0B160C006B
:102EA000FF08000400FFE020802080110011000ACC
:102EB0000004000A0071C00B0B160C00FF14002761
:102EC000E02A006200A3C02200220023E0220022A8
:102ED00000220000000000000000000000000000D0
:102EE00000000000000000000000000000000000E2
:102EF00000000000000000000000000000000000D2
:102F000000000000000000000000000000000000C1
:102F100000000000000000000000000000000000B1
:1032B000000000000000000000000000060900FE01
:1032C000070192032120FFFF08FF07FF000000060F
:1032D00000000107070602008080808080008003D4
:1032E0000202060105A0A00507070600005050F8DD
:1032F00050F850500507070600002078A07028F00D
:1033000020050707060000C0C810204098180507D0
:10331000070600006090A040A89068020303060121
:1033200004C04080030707060100204080808040E1
:10333000200307070601008040202020408005056B
:103340000506000120A870A820050505060001203B
:1033500020F820200203030602FFC040800501017F
:10336000060003F8020202060200C0C005050506B9
:1033700000010810204080050707060000708888BB
:103380008888887003070706010040C0404040401D
:10339000E0050707060000708808708080F80507C0
:1033A00007060000F81020100808F00507070600BF
:1033B0000010305090F81010050707060000F88044
:1033C000F008088870050707060000708080F08804
:1033D0008870050707060000F80810202020200547
:1033E0000707060000708888708888700507070640
:1033F000000070888878080870020505060200C081
:10340000C000C0C00206060602FFC0C000C0408067
:103410000407070600001020408040201005030329
:10342000060002F800F8040707060100804020109B
:103430002040800507070600007088081020002043
:1034400005070706000070880868A8A87005070728
:10345000060000708888F88888880507070600003D
:10346000F08888F08888F0050707060000708880DB
:1034700080808870050707060000F08888888888A3
:10348000F0050707060000F88080F08080F8050747
:1034900007060000F88080F080808005070706009E
:1034A00000708880B8888870050707060000888843
:1034B00088F888888801070706020080808080805D
:1034C0008080050707060000381010101090600576
:1034D00007070600008890A0C0A09088050707068F
:1034E0000000808080808080F80507070600008843
:1034F000D8A8888888880507070600008888C8A893
:103500009888880507070600007088888888887072
:10351000050707060000F08888F08080800507070F
:1035200006000070888888A89068050707060000D4
:10353000F08888F0A0908805070706000078808052
:10354000700808F0050707060000F820202020205A
:103550002005070706000088888888888870050786
:10356000070600008888888888502005070706001D
:10357000008888888888A850050707060000888882
:10358000502050888805070706000088888850204A
:103590002020050707060000F80810204080F803E7
:1035A0000707060100E08080808080E005050506B1
:1035B00000018040201008030707060100E02020DA
:1035C000202020E0050303060004205088050101A7
:1035D000060000F802020206020580400505050605
:1035E000000070087888780507070600008080B022
:1035F000C88888F005050506000070808088700581
:1036000007070600000808689888887805050506F9
:1036100000007088F880700507070600003048E059
:10362000404040400506060600FF70888878087014
:103630000507070600008080B0C888888801070752
:10364000060200800080808080800308080601FF59
:10365000200020202020A0400407070600008080D2
:1036600090A0C0A090030707060100C04040404062
:1036700040E0050505060000D0A8A8A8A805050596
:10368000060000B0C8888888050505060000708817
:103690008888700506060600FFF08888F08080059F
:1036A00006060600FF7888887808080505050600E4
:1036B00000B0C88080800505050600007080700895
:1036C000F00407070600004040E040404030050598
:1036D00005060000888888986805050506000088AA
:1036E000888850200505050600008888A8A8500590
:1036F000050506000088502050880506060600FFD4
:10370000888888780870050505060000F8102040B4
:10371000F8030707060100204040804040200107D1
:1037200007060200808080808080800307070601F2
:103730000080404020404080050202060002689060
:103740000000000600000000000600000000000667
:10375000000000000006000000000006000000005D
:103760000006000000000006000000000006000047
:103770000000000600000000000600000000000637
:10378000000000000006000000000006000000002D
:103790000006000000000006000000000006000017
:1037A0000000000600000000000600000000000607
:1037B00000000000000600000000000600000000FD
:1037C00000060000000000060000000000060000E7
:1037D00000000006000000000006000000000006D7
:1037E00000000000000600000000000600000000CD
:1037F00000060000000000060000000000060000B7
:103800000000000600000000000600000107070697
:10381000020080008080808080050707060000206D
:1038200070A8A0A87020050707060000304040E0FF
:103830004050A805050506000088705070880507EF
:1038400007060000885020F820F82001070706022C
:1038500000808080008080800508080600003048D5
:10386000205050209060030101060107A0050707C2
:10387000060000F888B8B8B888F805070706000100
:10388000700878887800F80505050600012850A022
:103890005028050303060001F80808020202060288
:1038A000064080050707060000F888A88898A8F851
:1038B000050101060006F804040406000360909068
:1038C000600507070600002020F8202000F8040506
:1038D0000506000360902040F0030505060003E0A4
:1038E00020E020E0020202060206408005080806E9
:1038F00000FF8888888898E8808005070706000010
:1039000078989878181818020202060202C0C002BD
:1039100002020602FF408003050506000340C04086
:1039200040E0050707060001708888887000F805E8
:103930000505060001A0502850A005070706000055
:103940008890A858B808080507070600008890B8AE
:1039500048982038050808060000C040C048D838FC
:103960000808050707060000200020408088700531
:1039700008080600004020007088F88888050808BC
:103980000600001020007088F888880508080600E6
:10399000002050007088F888880508080600006834
:1039A00090007088F88888050808060000500070AC
:1039B0008888F8888805080806000020502070884C
:1039C000F888880507070600003860A0B8E0A0B8AE
:1039D0000508080600FF7088808088702060050850
:1039E00008060000402000F880F080F8050808066E
:1039F0000000081000F880F080F8050808060000B4
:103A0000205000F880F080F80507070600005000FD
:103A1000F880F080F8030808060100804000E040CC
:103A20004040E0030808060100204000E04040401C
:103A3000E003080806010040A000E0404040E00329
:103A40000707060100A000E0404040E00507070628
:103A50000000704848E848487005080806000068FB
:103A6000900088C8A89888050808060000402070C3
:103A700088888888700508080600001020708888EB
:103A80008888700508080600002050007088888823
:103A90007005080806000068900070888888700526
:103AA00008080600005000708888888870050505A1
:103AB00006000188502050880508080600FF107095
:103AC000A8A8A8A87040050808060000402088881B
:103AD0008888887005080806000010208888888873
:103AE00088700508080600002050008888888870C3
:103AF0000508080600005000888888888870050836
:103B00000806000010208850202020200509090602
:103B100000FFC040704848704040E00408080601BB
:103B2000FF609090A09090E080050808060000409B
:103B3000200070087888780508080600001020002A
:103B40007008788878050808060000205000700882
:103B50007888780508080600006890007008788862
:103B60007805070706000050007008788878050877
:103B700008060000205020700878887805060606A0
:103B80000000D02878A0A8500506060600FF708027
:103B9000887020600508080600004020007088F842
:103BA00080700508080600001020007088F88070FA
:103BB0000508080600002050007088F8807005078E
:103BC0000706000050007088F8807003080806019E
:103BD0000080400040C04040E0030808060100208B
:103BE000400040C04040E003080806010040A0003B
:103BF00040C04040E0030707060100A00040C0406D
:103C000040E0050707060000A040A0107888700576
:103C10000808060000689000B0C888888805080871
:103C2000060000402000708888887005080806009B
:103C300000102000708888887005080806000020A1
:103C40005000708888887005080806000068900099
:103C50007088888870050707060000500070888803
:103C600088700505050600012000F80020050707FB
:103C70000600FF1070A8A8A87040050808060000FC
:103C800040200088888898680508080600001020F1
:103C90000088888898680508080600002050008879
:103CA000888898680507070600005000888888986B
:103CB000680509090600FF102000888888F8087048
:103CC0000407070601FFC04060506040E005080897
:103CD0000600FF50008888887808705072696E74FA
:103CE00065722068616C7465642E206B696C6C2849
:103CF000292063616C6C6564210020496E76616CDB
:103D000069642065787472756465722000000052E1
:103D10004300005243000052430000000000000036
:103D20000000000000000000000000000000000093
:103D3000005761726E696E673A20486F6D696E67F1
:103D40002042756D702044697669736F72203C2043
:103D500031000000A0400000A04000000040000032
:103D600052430000524300005243FFFFFF4D3834DE
:103D700020582059205A204500256920686F757207
:103D800073202569206D696E7574657300446F6ECC
:103D900065207072696E74696E672066696C650073
:103DA0004B494C4C45442E200053544F50504544F1
:103DB0002E20005072696E7465722073746F70707B
:103DC00065642064756520746F206572726F72730C
:103DD0002E2046697820746865206572726F7220A3
:103DE000616E6420757365204D39393920746F20F8
:103DF000726573746172742E202854656D706572DB
:103E000061747572652069732072657365742E2004
:103E100053657420697420616674657220726573DD
:103E200074617274696E6729004E6F204C696E650B
:103E3000204E756D626572207769746820636865CD
:103E4000636B73756D2C204C617374204C696E65C7
:103E50003A20004E6F20436865636B73756D207761
:103E6000697468206C696E65206E756D6265722C70
:103E7000204C617374204C696E653A20006368655C
:103E8000636B73756D206D69736D617463682C204D
:103E90004C617374204C696E653A20004C696E6504
:103EA000204E756D626572206973206E6F74204CB0
:103EB000617374204C696E65204E756D6265722B5E
:103EC000312C204C617374204C696E653A20004D92
:103ED00031313000D2B2DD00AEAFB0004D61696E5D
:103EE00000C9BDDED900D3D4004E6F7A7A6C65006C
:103EF000CDDEAFC4DE00C4C70042656400CCA7DDE0
:103F0000BFB8C4DE00D5D6D1D20046616E20737032
:103F100065656400BCDEADDDCBDEBEAFC3B200A420
:103F2000A50050726570617265004572723A204D4D
:103F3000494E54454D50004572723A204D415854F7
:103F4000454D50004572723A204D494E54454D50F2
:103F5000004572723A204D415854454D50006265FB
:103F600064002C2073797374656D2073746F7070A6
:103F7000656421204865617465725F49443A200098
:103F800070012C0190012701B0012201C0011D0127
:103F9000F00118011002130130020E016002090144
:103FA00090020401C002FF000003FA004003F50084
:103FB0008003F000D003EB002004E6007004E10071
:103FC000E004DC004005D700C005D2004006CD006B
:103FD000D006C8008007C3003008BE00F008B90052
:103FE000C009B400B00AAF00B00BAA00D00CA50005
:103FF000000EA000500F9B00C010960050129100C0
:1040000000148C00C0158700B0178200B0197D0025
:10401000D01B7800001E730040206E0090226900C3
:10402000F024640040275F0090295A00E02B5500DF
:10403000102E500020304B0010324600E03341007B
:1040400090353C001037370070383200A0392D0011
:10405000B03A2800A03B2300603C1E00103D190030
:10406000903D1400103E0F00703E0A00C03E050057
:10407000003F0000544845524D414C2052554E419E
:1040800057415900546865726D616C2052756E61BC
:10409000776179004572723A204D415854454D5030
:1040A000004572723A204D415854454D50004D41E3
:1040B0005854454D50207472696767657265640095
:1040C0004572723A204D494E54454D50004572722A
:1040D0003A204D494E54454D50004D494E54454DA2
:1040E0005020747269676765726564004572723A40
:1040F000204D494E54454D5020424544004D494EB7
:1041000054454D5020747269676765726564004557
:1041100072723A204D415854454D5020424544005A
:104120004D415854454D50207472696767657265FA
:1041300064004D61696E004E6F7A7A6C650042656D
:10414000640046616E20737065656400507265702E
:104150006172650000000000000000000000000027
:10416000000000000000000000000000000000004F
:10417000000000000000000000000000000000003F
:10418000000000000000000000000000000000002F
:10419000000000000000000000000000000000001F
:1041A000000000000000000000000000000000000F
:1041B00000000000000000000000000000000000FF
:1041C00000000000000000000000000000000000EF
:1041D00000000000000000000000000000000000DF
:1041E00000000000000000000000000000000000CF
:1041F00000000000000000000000000000000000BF
:1042000000000000000000000000000000000000AE
:10421000000000000000000000000000000000009E
:10422000000000000000000000000000000000008E
:10423000000000000000000000000000000000007E
:10424000000000000000000000000000000000006E
:10425000000000000000000000000000000000005E
:10426000000000000000000000000000000000004E
:10427000000000000000000000000000000000003E
:10428000000000000000000000000000000000002E
:10429000000000000000000000000000000000001E
:1042A000000000000000000000000000000000000E
:1042B00000000000000000000000000000000000FE
:1042C000000000000000000000000C0000000000E2
:1042D000007C000001FC000000007C038000000066
:1042E00000C63F80031C000000000C03803000006B
:1042F00000C318C0060C000000000C0000300000D5
:1043000000C31860060C000000000C000030000024
:10431000000318300C00F787C1F80C0780FE3DE061
:10432000000618300C003D8C630C0C01803018C066
:10433000001E18300C003818330C0C0180300D8032
:10434000000318300C003018303C0C0180300D8018
:10435000000198300C00301FF1EC0C0180300D8012
:10436000000198300C0C3018030C0C0180300780D1
:1043700000C19830060C3018330C0C018030070057
:1043800000C198600718300C631F0C0180330300D4
:1043900000C318C001F0FC07C1FF7F87E01E0300C7
:1043A000007E3F80000000000000000000000600CA
:1043B00000000000000000000000000000001E00DF
:1043C00000000000000000000000000000001C00D1
:1043D00000000000000000000000000000000000DD
:1043E00000000000000000000000000000000000CD
:1043F00000000000000000000000000000000000BD
:1044000000000000000000000000000000000000AC
:10441000000000000000000000000000000000009C
:10442000000000000000000000000000000000008C
:10443000000000000000000000000000000000007C
:10444000000000000000000000000000000000006C
:10445000000000000000000000000000000000005C
:10446000000000000000000000000000000000004C
:10447000000000000000000000000000000000003C
:10448000000000000000000000000000000000002C
:10449000000000000000000000000000000000001C
:1044A000000000000000000000000000000000000C
:1044B00000000000000000000000000000000000FC
:1044C00000000000000000000000000000000000EC
:1044D00000000000000000000000000000000000DC
:1044E00000000000000000000000000000000000CC
:1044F00000000000000000000000000000000000BC
:1045000000000000000000000000000000000000AB
:10451000000000000000000000000000000000009B
:10452000000000000000000000000000000000008B
:10453000000000000000000000000000000000007B
:10454000000000000000000000000000000000006B
:104550000000000000060900FE0000000000010944
:104560000008FE000005080806000040F0C8888822
:10457000987810050808060000C0F88888888888A0
:10458000F80505050600012030F83020050808066A
:1045900000002070F820202020E00509090600FF17
:1045A0002070A8A8B8888870200509090600FFE0D7
:1045B00080C0B0A8283028280509090600FFF8A8FF
:1045C0008888888888A8F8050A0A0600FE205050C6
:1045D000505088A8A8887003030306000340A04039
:1045E00048617264636F6465642044656661756CDC
:1045F000742053657474696E6773204C6F616465D1
:10460000640020204D3230302044300020204D32D4
:1046100030302044002044697361626C6564004658
:10462000696C616D656E742073657474696E67730F
:104630003A0020204D3235302043004C4344204383
:104640006F6E74726173743A00204C002043002036
:10465000440020490020204D333031205000504983
:10466000442073657474696E67733A0020460020B5
:10467000420020204D313435204D31204800204665
:104680000020420020204D313435204D302048009C
:104690004D6174657269616C206865617475702024
:1046A000706172616D65746572733A00205A002002
:1046B000590020204D323036205800486F6D65205B
:1046C0006F666673657420286D6D293A0020450079
:1046D000205A0020580020420020540020204D3253
:1046E0003035205300416476616E636564207661E5
:1046F000726961626C65733A20533D4D696E206644
:104700006565647261746520286D6D2F73292C2096
:10471000543D4D696E2074726176656C20666565E6
:10472000647261746520286D6D2F73292C20423DC1
:104730006D696E696D756D207365676D656E74204A
:1047400074696D6520286D73292C20583D6D617842
:10475000696D756D205859206A65726B20286D6DE2
:104760002F73292C20205A3D6D6178696D756D205D
:104770005A206A65726B20286D6D2F73292C2020BA
:10478000453D6D6178696D756D2045206A65726B78
:1047900020286D6D2F732900205400205200202006
:1047A0004D323034205000416363656C6572617432
:1047B000696F6E733A20503D7072696E74696E67EE
:1047C0002C20523D7265747261637420616E6420A6
:1047D000543D74726176656C00204500205A0020BB
:1047E000590020204D3230312058004D6178696DDC
:1047F000756D20416363656C65726174696F6E20CD
:10480000286D6D2F7332293A00204500205A002070
:10481000590020204D3230332058004D6178696DA9
:10482000756D2066656564726174657320286D6DB1
:104830002F73293A00204500205A002059002020DB
:104840004D393220580053746570732070657220A2
:10485000756E69743A0024F4D43050C38E20C2A21D
:104860004017828B7011127A910D816CD90AA86160
:10487000E108C7586607615143061E4B5D05C145F7
:10488000A7041A411104093D9803713931034036D8
:10489000DB0265339102D4305402802E1D02632C5A
:1048A000EE01752AC501B028A001102781018F25CE
:1048B00064012B244B01E0223401AC211F018D2027
:1048C0000D01801FFC00841EED00971DDF00B81C49
:1048D000D200E61BC600201BBC00641AB200B2194D
:1048E000A8000A19A0006A189900D1179100401772
:1048F0008B00B516840031167E00B31579003A1589
:104900007300C7146F0058146A00EE136600881312
:10491000630025135E00C7125B006C12570015126E
:104920005400C111510070114F0021114B00D610DD
:1049300049008D1047004610440002104200C00F8D
:104940004000800F3E00420F3C00060F3B00CB0EA4
:104950003800930E37005C0E3500270E3400F30D3F
:104960003200C10D3100900D3000600D2E00320D6F
:104970002D00050D2C00D90C2B00AE0C2900850C48
:1049800029005C0C2700350C27000E0C2600E80BD4
:104990002400C40B2400A00B23007D0B23005A0B22
:1049A0002100390B2100180B2000F80A1F00D90A3A
:1049B0001E00BB0A1E009D0A1D00800A1D00630A1E
:1049C0001C00470A1B002C0A1B00110A1A00F709D9
:1049D0001A00DD091900C4091900AB091900920970
:1049E00017007B091800630917004C0916003609E7
:1049F0001600200916000A091500F5081500E00840
:104A00001400CC081400B8081400A408140090087E
:104A100013007D0812006B081300580812004608A6
:104A200012003408110023081100120811000108B7
:104A30001100F0071000E0071000D0071000C007B9
:104A40001000B0070F00A107100091070E008307A8
:104A50000F0074070F0065070E0057070E00490787
:104A60000E003B070D002E070E0020070D00130758
:104A70000D0006070D00F9060C00ED060D00E0061E
:104A80000C00D4060C00C8060C00BC060C00B006D6
:104A90000C00A4060B0099060C008D060B00820684
:104AA0000B0077060B006C060B0061060A00570628
:104AB0000B004C060A0042060A0038060A002E06C1
:104AC0000A0024060A001A060A0010060900070652
:104AD0000A00FD050900F4050900EB050900E205DF
:104AE0000900D9050900D0050900C7050900BE0560
:104AF0000900B5050800AD050800A50509009C05DD
:104B00000800940508008C050800840508007C0551
:104B10000800740508006C050700650508005D05C0
:104B20000700560508004E05070047050700400529
:104B3000080038050700310507002A05070023058E
:104B400007001C050600160507000F0507000805ED
:104B5000060002050700FB040600F5040700EE044A
:104B60000600E8040600E2040700DB040600D504A2
:104B70000600CF040600C9040600C3040600BD04F5
:104B80000600B7040600B1040500AC040600A60444
:104B90000600A00405009B0406009504050090048F
:104BA00006008A04050085040500800406007A04D6
:104BB000050075040500700405006B04050066041B
:104BC0000500610405005C0405005704050052045B
:104BD00005004D04050048040500430405003E049B
:104BE00004003A04050035040500300404002C04D8
:104BF000050027040400230405001E0404001A0411
:104C0000040016040500110404000D040400090446
:104C100005000404040000040400FC030400F8037D
:104C20000400F4030400F0030400EC030400E803B0
:104C30000400E4030400E0030400DC030400D803E0
:104C40000400D4030400D0030400CC030400C80310
:104C50000300C503030024F404D9201BC40C5C0E1C
:104C60009804C4095F0265077101F405F900FB04AB
:104C7000B30048048700C1036900580355000303CB
:104C80004500BE023A008402310053022A00290284
:104C9000250004022000E4011C00C8011900AF0136
:104CA00017009801140084011300710110006101C4
:104CB000100051010E0043010D0036010B002B01C5
:104CC0000B0020010B00150109000C010900030174
:104CD0000800FB000800F3000800EB000700E400F8
:104CE0000600DE000600D8000600D2000600CC0058
:104CF0000500C7000500C2000500BD000400B900A2
:104D00000400B5000400B1000400AD000400A900D7
:104D10000400A5000300A20003009F0004009B0004
:104D20000300980003009500020093000300900028
:104D300003008D0002008B00030088000200860043
:104D4000020084000300810002007F0002007D0059
:104D500002007B000200790002007700010076006B
:104D600002007400020072000100710002006F0076
:104D700002006D0001006C0002006A000100690081
:104D80000200670001006600010065000100640088
:104D900002006200010061000100600001005F008C
:104DA00002005D0001005C0001005B0001005A0090
:104DB0000100590001005800010057000100560091
:104DC0000100550001005400010053000000530091
:104DD00001005200010051000100500001004F008D
:104DE00001004E0000004E0001004D0001004C008B
:104DF00001004B0000004B0001004A000100490087
:104E00000100480000004800010047000100460082
:104E1000000046000100450000004500010044007C
:104E20000100430000004300010042000000420076
:104E300001004100000041000100400001003F006E
:104E400000003F0001003E0000003E0001003D0068
:104E500000003D0001003C0000003C0000003C0060
:104E600001003B0000003B0001003A0000003A0056
:104E7000010039000000390001003800000038004E
:104E80000000380001003700000037000100360044
:104E9000000036000000360001003500000035003B
:104EA0000000350001003400000034000000340030
:104EB0000100330000003300000033000100320025
:104EC000000032000000320001003100000031001B
:104ED0000000310001003000000030000000300010
:104EE00001002F0000002F0000002F0000002F0005
:104EF00001002E0000002E0000002E0001002D00F9
:104F000000002D0000002D0000002D0001002C00ED
:104F100000002C0000002C0000002C0001002B00E1
:104F200000002B0000002B0000002B0001002A00D5
:104F300000002A0000002A0000002A0001002900C9
:104F400000002900000029000000290000002900BD
:104F500001002800000028000000280000002800B0
:104F600000002800010027000000270000002700A3
:104F70000000270000002700010026000000260096
:104F80000000260000002600000026000100250089
:104F9000000025000000250000002500000025007D
:104FA000000025000100240000002400000024006F
:104FB0000000240000002400010023000000230062
:104FC0000000230000002300000023000000230055
:104FD0000000230001002200000022000000220047
:104FE0000000220000002200000022000100210039
:104FF000000021000000210000002100000021002D
:10500000000021000000210001002000000020001D
:105010000000200000002000000020000000200010
:10502000000020000000200001001F0000001F0001
:1050300000001F0000001F0000001F0000001F00F4
:1050400000001F0001001E0000001E0000001E00E6
:1050500000001E0000004D383420582059205A20EE
:105060004500CCDFD8DDC4BBB2B6B23F00F4F5CA10
:10507000F33F00526573756D65207072696E743F01
:10508000005965730059657300596573004E6F00D0
:105090004E6F004E6F00B2DDCCAB00ECEDEEEF00DA
:1050A000496E666F2073637265656E00C1AEB3BEF4
:1050B000B200CFF00054756E65004C616E6775618B
:1050C0006765004C616E6775616765004C616E676E
:1050D0007561676500B2C1BCDEC3B2BC00F1F2CA43
:1050E000F3005061757365207072696E7400CCDFD7
:1050F000D8DDC4BBB2B6B200F4F5CAF30052657392
:10510000756D65207072696E7400CCDFD8DDC4C324
:10511000B2BC00F2F6CAF30053746F70207072696B
:105120006E74005344B6B0C4DEB6D7CCDFD8DDC44D
:10513000005344A8CAF3005072696E742066726FFF
:105140006D205344005344B6B0C4DEB6DEB1D8CFB0
:10515000BEDD00F9A8004E6F2053442063617264E5
:10516000004C454420436F6E74726F6C004C454494
:10517000004C454420436F6E74726F6C00BDCBDFF2
:10518000B0C4DE00D1D200537065656400B5B8D8F4
:10519000D8AEB300CCADD1D200466C6F770052656B
:1051A00073756D65207072696E743F005965730088
:1051B0004E6F00496E666F2073637265656E0054B2
:1051C000756E65004C616E6775616765005061754D
:1051D0007365207072696E7400526573756D652019
:1051E0007072696E740053746F70207072696E749F
:1051F000005072696E742066726F6D205344004EC9
:105200006F2053442063617264004C454420436F17
:105210006E74726F6C00537065656400466C6F77D6
:105220000020746F6F206C6F6E67206578747275E4
:1052300073696F6E2070726576656E7465640020A8
:10524000636F6C6420657874727573696F6E20701B
:10525000726576656E746564004B64200023646536
:1052600066696E65202044454641554C545F004BAD
:1052700069200023646566696E65202044454641C7
:10528000554C545F004B70200023646566696E6561
:10529000202044454641554C545F0050494420412C
:1052A00075746F74756E652066696E697368656480
:1052B000212050757420746865206C617374204BD4
:1052C000702C204B6920616E64204B6420636F6EEC
:1052D0007374616E74732066726F6D2062656C6F9B
:1052E0007720696E746F20436F6E666967757261AF
:1052F00074696F6E2E6800504944204175746F7454
:10530000756E65206661696C6564212074696D65E0
:105310006F75740020403A00543A00423A005049F8
:1053200044204175746F74756E65206661696C65A3
:1053300064212054656D70657261747572652074A6
:105340006F6F206869676800204B643A2000204B2B
:10535000693A2000204B703A200020436C6173733F
:1053600069632050494420002054753A2000204BA6
:10537000753A2000206D61783A2000206D696E3A00
:10538000200020643A200020626961733A20004FB7
:105390004E00CAB3004F4E004F464600B5B6004F10
:1053A0004646004E657874205374657000A2A1B71C
:1053B000004E657874205374657000B5DDC4DE005E
:1053C000C9D20054656D706572617475726500B301
:1053D000BADEB7BEAFC3B200DFB2004D6F74696F03
:1053E0006E00D2D3D8CDB6B8C9B30053746F72650E
:1053F000206D656D6F72790053746F7265206D65F5
:105400006D6F727900D2D3D8B6D7D6D0BAD0004C4F
:105410006F6164206D656D6F7279004C6F616420FF
:105420006D656D6F727900BEAFC3B2D8BEAFC400F8
:10543000A3F7F8FAFBFC00526573746F726520667F
:1054400061696C73616665004F4E004F4646004EC1
:1054500065787420537465700047312046323030CF
:10546000205A330047312046323030205A2D330045
:1054700047312058313030205931303020463530D6
:1054800030300047312046323030205A3300473127
:105490002046323030205A2D3300473120593230E7
:1054A0002046353030300047312046323030205AE7
:1054B000330047312046323030205A2D33004731F7
:1054C00020583138302046353030300047312046C2
:1054D000323030205A330047312046323030205AA3
:1054E0002D330047312059313830204635303030A7
:1054F0000047312046323030205A330047312046B1
:10550000313030205A2D3300473120583230205965
:1055100032302046353030300047393000473120B6
:1055200046313030205A333B004732382058302043
:105530005930205A300054656D706572617475720F
:1055400065004D6F74696F6E0053746F7265206DE6
:10555000656D6F7279004C6F6164206D656D6F725F
:105560007900526573746F7265206661696C73614E
:10557000666500526573656E643A20006F6B004883
:10558000656174696E67206661696C656400486571
:105590006174696E67206661696C6564004B494C93
:1055A0004C45442E20004B494C4C45442E20004D88
:1055B0003234004D32332025730043616E6E6F74B8
:1055C00020656E746572207375626469723A20009A
:1055D000022E2E0048D250D311241FBECFEFD1E2AD
:1055E000DEBFCDBF00E00CBF16E0A0E0B2E0ECEF04
:1055F000FDEC01E00BBF02C007900D92A83AB10785
:10560000D9F72BE1A8EAB6E001C01D92A73DB20789
:10561000E1F71AE2CBEEDAE200E006C021970109D9
:10562000802FFE010E9467E6CA3ED10780E008078E
:10563000A9F70E9439CB0C94EDE60C9400002F9250
:105640003F924F925F926F927F928F929F92AF9212
:10565000BF92CF92DF92EF92FF920F931F93CF935F
:10566000DF93CDB7DEB7C456D1090FB6F894DEBFCD
:105670000FBECDBF2091A8083091A90840E6429FF7
:10568000C001439F900D1124885D984F9093B906F7
:105690008093B80680919E0280FF22C0EAE3FEE07C
:1056A0008491882341F09091C00095FFFCCF8093B6
:1056B000C6003196F5CFE091B806F091B906819118
:1056C000882339F09091C00095FFFCCF8093C600ED
:1056D000F6CF8091C00085FFFCCF8AE08093C600A2
:1056E0002091B8063091B906F90180812F5F3F4FB4
:1056F0008032D1F3F093B906E093B8068E3461F0AE
:105700000091B8061091B9066AE270E0C8010E94E3
:10571000B5E60097D1F420C0818190ED980F9A30C2
:1057200010F08D3269F73296DF0131962C912053BB
:105730002A30D0F3CD01FC01019620812032D9F32B
:10574000F093B906E093B806DBCFFC013196829165
:10575000803281F08A3271F0D8012C9111968C91AF
:1057600080538A3010F00C9475411093B00600936A
:10577000AF0602C01082EBCFE091AF06F091B00609
:1057800080818F7D31F03196F093B006E093AF06C3
:10579000F3CFE091AF06F091B0068081803231F412
:1057A0003196F093B006E093AF06F3CF1093AE06B8
:1057B0000093AD06A5962FAFA5970E94DA428C0103
:1057C000A5962FADA5972D3409F4C4C5243511F441
:1057D0000C946D3F273411F00C9475418430910581
:1057E00009F470C45CF497FF02C00C94F73F8091F9
:1057F0007702023011050CF006C114C08A359105FC
:1058000009F43AC52CF44C9709F4A8C40C94F73F5A
:105810008B35910509F434C58C35910509F435C5EE
:105820000C94F73F882311F40C94F73F0E94104327
:105830008CE391E10E94CABE0E94DC4780919E02E7
:1058400083FD96C0C0904811D0904911E0904A1154
:10585000F0904B112091CD1B3091CE1B4091CF1B6E
:105860005091D01BC701B6010E94B0E24B015C0110
:1058700020E030E0A9010E94C7DC882309F478C049
:1058800020919A0230919B0240919C0250919D027E
:105890006091D9107091DA108091DB109091DC103A
:1058A0000E94C7DC87FF29C0C092CD1BD092CE1BBF
:1058B000E092CF1BF092D01BEAE3FEE084918823B4
:1058C00041F09091C00095FFFCCF8093C6003196C7
:1058D000F5CFE3EFF2E08491882341F09091C0008E
:1058E00095FFFCCF8093C6003196F5CF8091C00024
:1058F00085FFFCCF8AE08093C600C501B4010E94F9
:1059000010E497FF07C090958095709561957F4F43
:105910008F4F9F4F653A7140810591054CF1C092C0
:10592000CD1BD092CE1BE092CF1BF092D01BEAE3AE
:10593000FEE08491882341F09091C00095FFFCCF58
:105940008093C6003196F5CFE5EDF2E0849188238F
:1059500041F09091C00095FFFCCF8093C600319636
:10596000F5CF8091C00085FFFCCF8AE08093C60010
:1059700020913C1130913D1140913E1150913F11C9
:105980006091C11B7091C21B8091C31B9091C41B7D
:105990000E94C7DC811117C0209140113091411144
:1059A00040914211509143116091C51B7091C61BEB
:1059B0008091C71B9091C81B0E94C7DC811103C056
:1059C0000E94B8421CC06091940270919502072E0B
:1059D000000C880B990B0E94CDDC20910E023091B7
:1059E0000F0240911002509111020E9495D820E0C0
:1059F00030E048EC52E40E949FE30E949A420E94E9
:105A0000A9410C94F73F882311F40C94F73F0E94AE
:105A1000104389E40E94C742882329F00E94E7428C
:105A20006B017C0103C0C12CD12C76018AE40E9459
:105A3000C742882349F00E94E74228966CAF7DAFA9
:105A40008EAF9FAF289706C028961CAE1DAE1EAE27
:105A50001FAE289728962CAD3DAD4EAD5FAD289773
:105A6000C701B6010E940DE564966CAF7DAF8EAFA5
:105A70009FAF64974090C11B5090C21B6090C31BA6
:105A80007090C41B48AA59AA6AAA7BAAA7019601CA
:105A9000C301B2010E94B1E2A0966CAF7DAF8EAFA0
:105AA0009FAFA0974090C51B5090C61B6090C71B2E
:105AB0007090C81B4CAA5DAA6EAA7FAA28962CAD2E
:105AC0003DAD4EAD5FAD2897C301B2010E94B1E27A
:105AD000A4966CAF7DAF8EAF9FAFA4974090C91BCB
:105AE0005090CA1B6090CB1B7090CC1B4CAE5DAE2F
:105AF0006EAE7FAEA3019201609144117091451189
:105B000080914611909147110E94B0E224966CAFAB
:105B10007DAF8EAF9FAF24974090CD1B5090CE1B92
:105B20006090CF1B7090D01B2C964CAE5DAE6EAECD
:105B30007FAE2C97A3019201609148117091491199
:105B400080914A1190914B110E94B0E268966CAF1F
:105B50007DAF8EAF9FAF6897A701960150582CA7D5
:105B60003DA74EA75FA728964CAC5DAC6EAC7FAC52
:105B7000289777FA709477F8709480913C119091FF
:105B80003D11A0913E11B0913F1188AF99AFAAAFDE
:105B9000BBAFA0962CAD3DAD4EAD5FADA097BC01A7
:105BA000CD010E94B0E26B017C0120914011309147
:105BB0004111409142115091431160962CAF3DAF7D
:105BC0004EAF5FAF6097A4962CAD3DAD4EAD5FADCF
:105BD000A49760966CAD7DAD8EAD9FAD60970E9431
:105BE000B0E24B015C01A70196016CA57DA58EA5D5
:105BF0009FA50E9495D86C966CAF7DAF8EAF9FAF7E
:105C00006C97A5019401C301B2010E9495D89B0134
:105C1000AC016C966CAD7DAD8EAD9FAD6C970E9466
:105C2000B1E26C966CAF7DAF8EAF9FAF6C97A50164
:105C300094016CA57DA58EA59FA50E9495D84B01CA
:105C40005C01A7019601C301B2010E9495D89B0196
:105C5000AC01C501B4010E94B0E26C962CAD3DAD23
:105C60004EAD5FAD6C970E942FE36B017C0120E08D
:105C700030E0A9010E94C7DC87FF0AC02BED3FE09E
:105C800049EC50E4C701B6010E94B1E26B017C010E
:105C90000230110551F42BED3FE049EC50E4C7010F
:105CA000B6010E94B0E26B017C0128AD39AD4AAD6E
:105CB0005BAD68A979A98AA99BA90E94C7DC81115B
:105CC00021C060962CAD3DAD4EAD5FAD60976CA927
:105CD0007DA98EA99FA90E94C7DC811113C020E075
:105CE00030E0A901C701B6010E94C7DC81110AC0DA
:105CF0002BED3FE049EC50E4C701B6010E94B1E250
:105D00006B017C0164962CAD3DAD4EAD5FAD6497EB
:105D1000C701B6010E9495D824962CAD3DAD4EAD7D
:105D20005FAD24975F770E940DE54B015C012FE684
:105D300032E143E85AE30E94C7DC87FDBFC1C501D9
:105D4000B4010E9445E40E9416E479AF68AF672B66
:105D500021F481E090E099AF88AFA8ADB9ADBD0165
:105D600080E090E00E94CBDC4B015C019B01AC0128
:105D7000C701B6010E949FE368AB79AB8AAB9BABCE
:105D8000A501940124966CAD7DAD8EAD9FAD249799
:105D90000E949FE364966CAF7DAF8EAF9FAF649718
:105DA000A501940168966CAD7DAD8EAD9FAD6897F1
:105DB0000E949FE368966CAF7DAF8EAF9FAF6897F0
:105DC00020E030E040E05FE368A979A98AA99BA9B7
:105DD0000E9495D828A939A94AA95BA90E9495D8FB
:105DE0009B01AC0160E070E080E89FE30E94B0E2BC
:105DF00060966CAF7DAF8EAF9FAF60972CAD3DAD21
:105E00004EAD5FAD29873A874B875C872C968CAD6A
:105E10009DADAEADBFAD2C978D879E87AF87B88BFC
:105E20006091940270919502072E000C880B990BDB
:105E30000E94CDDC20910E0230910F0240911002A1
:105E4000509111020E9495D820E030E040E752E4E2
:105E50000E949FE320E030E048EC52E40E949FE380
:105E60002C966CAF7DAF8EAF9FAF2C979CA59CAB53
