:100000000C9453170C9464AA0C9495AA0C94C6AA49
:100010000C94F7AA0C9428AB0C9459AB0C948AABB3
:100020000C94BBAB0C9484170C9484170C94841719
:100030000C9484170C9484170C9484170C948417D4
:100040000C9484170C941C710C9484170C948417D2
:100050000C9484170C9484170C94E4820C94ECABED
:100060000C9484170C9429290C9484170C948417ED
:100070000C9484170C9484170C9484170C94841794
:100080000C9484170C9484170C9484170C94841784
:100090000C9484170C9484170C9484170C943AA134
:1000A0000C9484170C9484170C9484170C94841764
:1000B0000C9484170C9484170C9484170C94841754
:1000C0000C9484170C9484170C9484170C94841744
:1000D0000C9484170C9484170C9484170C94841734
:1000E0000C9484173E834E836D837D8398839D8318
:1000F000A083A583A883AD83B083B583BF83E1A329
:10010000FEA300A40CA412A415A41FA43EAA08AA2E
:1001100010AA1CAA29AA4AAA57AA0FAD14AD19AD54
:1001200023AD2DADA6AD37AD3FAD47AD51AD5BAD08
:1001300065AD74AD7EADA6AD88AD92AD9CADC7ADDD
:10014000CAADB9ADBDADC3AD01AECEADD2ADD8ADCA
:10015000DCADE0ADE6ADEAADEEAD01AEF4ADF8ADCF
:10016000FCAD084AD73B3BCE016E84BCBFFDC12F1E
:100170003D6C74319ABD56833DDA3D00C77F11BE98
:10018000D9E4BB4C3E916BAAAABE000000803F059B
:10019000A84CCDB2D44EB93836A9020C50B99186CC
:1001A00088083CA6AAAA2ABE000000803F004D385D
:1001B0003420582059205A20450043616E6E6F74D8
:1001C00020656E746572207375626469723A2000EE
:1001D0004D3234004D3233202573006175746F2524
:1001E000692E67006572726F722077726974696E2A
:1001F0006720746F2066696C65004E6F74205344ED
:10020000207072696E74696E670053442070726961
:100210006E74696E672062797465200044656C6550
:1002200074696F6E206661696C65642C2046696C28
:10023000653A200046696C652064656C6574656488
:100240003A006F70656E206661696C65642C2046AB
:10025000696C653A200057726974696E6720746F23
:100260002066696C653A20002E0A006F70656E206A
:100270006661696C65642C2046696C653A20002EC5
:100280000A006F70656E206661696C65642C20469B
:10029000696C653A200046696C652073656C65631E
:1002A000746564002053697A653A200046696C657C
:1002B000206F70656E65643A20006F70656E206611
:1002C00061696C65642C2046696C653A20004E6F4C
:1002D000772066726573682066696C653A20004E07
:1002E0006F7720646F696E672066696C653A2000DD
:1002F0002220706F73002220706172656E743A2242
:1003000000535542524F5554494E452043414C4CA1
:10031000207461726765743A22004B494C4C454425
:100320002E2000747279696E6720746F2063616C8F
:100330006C207375622D67636F64652066696C65F8
:1003400073207769746820746F6F206D616E7920F7
:100350006C6576656C732E204D4158206C65766512
:100360006C2069733A0053442063617264206F6BA0
:10037000006F70656E526F6F74206661696C6564A2
:1003800000766F6C756D652E696E697420666169A3
:100390006C656400534420696E6974206661696C01
:1003A0000020204D3230302044300020204D3230AB
:1003B000302044002044697361626C6564004669C2
:1003C0006C616D656E742073657474696E67733AE1
:1003D0000020204D3235302043004C434420436FF1
:1003E0006E74726173743A00204C00204300204404
:1003F0000020490020204D33303120500050494426
:100400002073657474696E67733A00204600204259
:100410000020204D313435204D3120480020460049
:1004200020420020204D313435204D302048004DF1
:100430006174657269616C206865617475702070A3
:100440006172616D65746572733A00205A002059BB
:100450000020204D323036205800486F6D65206FE7
:10046000666673657420286D6D293A00204500206A
:100470005A0020580020420020540020204D3230E5
:1004800035205300416476616E6365642076617245
:100490006961626C65733A20533D4D696E206665F3
:1004A00065647261746520286D6D2F73292C20544A
:1004B0003D4D696E2074726176656C206665656479
:1004C0007261746520286D6D2F73292C20423D6D5B
:1004D000696E696D756D207365676D656E742074E6
:1004E000696D6520286D73292C20583D6D617869F0
:1004F0006D756D205859206A65726B20286D6D2FBF
:1005000073292C20205A3D6D6178696D756D205AD4
:10051000206A65726B20286D6D2F73292C20204571
:100520003D6D6178696D756D2045206A65726B203F
:10053000286D6D2F73290020540020520020204D7B
:10054000323034205000416363656C6572617469B8
:100550006F6E733A20503D7072696E74696E672CCD
:1005600020523D7265747261637420616E64205420
:100570003D74726176656C00204500205A00205958
:100580000020204D3230312058004D6178696D7562
:100590006D20416363656C65726174696F6E2028BC
:1005A0006D6D2F7332293A00204500205A002059E2
:1005B0000020204D3230332058004D6178696D7530
:1005C0006D2066656564726174657320286D6D2F9A
:1005D00073293A00204500205A0020590020204D60
:1005E000393220580053746570732070657220751D
:1005F0006E69743A0048617264636F646564204494
:10060000656661756C742053657474696E677320D8
:100610004C6F616465640020496E76616C6964208A
:10062000657874727564657220005072696E7465C5
:10063000722068616C7465642E206B696C6C28296B
:100640002063616C6C656421004B494C4C45442E21
:1006500020004B494C4C45442E200020746F6F20E5
:100660006C6F6E6720657874727573696F6E207039
:10067000726576656E7465640020636F6C642065D6
:100680007874727573696F6E2070726576656E74BA
:100690006564006F6B00526573656E643A20004DAF
:1006A000333030205336353920503230300A4D3314
:1006B000303020533639382050323030004F6666A3
:1006C000736574206170706C6965642E004D333001
:1006D00030205334302050323030004572723A208E
:1006E000546F6F206661722100546F6F20666172D3
:1006F0002066726F6D207265666572656E63652037
:10070000706F696E74006C636420636F6E747261E5
:1007100073742076616C75653A2000536574746952
:100720006E672054726176656C20416363656C6509
:10073000726174696F6E3A200053657474696E67F4
:10074000205265747261637420416363656C6572E5
:100750006174696F6E3A200053657474696E672026
:100760005072696E7420416363656C65726174696F
:100770006F6E3A200053657474696E672050726919
:100780006E7420616E642054726176656C204163E2
:1007900063656C65726174696F6E3A20004D313427
:1007A0003520533C696E6465783E206F7574206F08
:1007B000662072616E67652028302D3129007A5FCE
:1007C0006D696E3A2000795F6D696E3A2000785F3E
:1007D0006D696E3A2000205A3A0020593A002043B1
:1007E0006F756E7420583A200020453A00205A3A1E
:1007F0000020593A00583A004649524D5741524557
:100800005F4E414D453A4D61726C696E20312E311B
:100810002E302046726F6D204172636869766520C4
:10082000534F555243455F434F44455F55524C3AF1
:10083000687474703A2F2F202E2E2E2050524F5451
:100840004F434F4C5F56455253494F4E3A312E302D
:10085000204D414348494E455F545950453A334431
:10086000207072696E746572204558545255444523
:10087000525F434F554E543A3120555549443A3012
:10088000303030303030302D303030302D3030306E
:10089000302D303030302D3030303030303030305E
:1008A0003030300A003344207072696E74657220F3
:1008B0004F66662E003344207072696E7465722034
:1008C00072656164792E0042656420646F6E652EE6
:1008D0000020423A0020453A00543A004265642024
:1008E00048656174696E672E0048656174696E675A
:1008F00020646F6E652E003F0020573A0020453A75
:1009000000543A0048656174696E672E2E2E0020EF
:1009100042403A0020403A00202F00205400202F6F
:100920000020423A00202F0020543A006F6B004B09
:10093000494C4C45442E20004445425547204452E2
:100940005952554E20454E41424C45440044454283
:100950005547204543484F20454E41424C454400B1
:100960002569206D696E2C2025692073656300451B
:100970006E642066696C65206C69737400426567FB
:10098000696E2066696C65206C697374004E6F2017
:100990006D6F76652E003344207072696E746572D7
:1009A0002072656164792E00526573756D696E679A
:1009B000207072696E74005761697420666F7220CE
:1009C000757365722E2E2E005761726E696E673ACE
:1009D00020486F6D696E672042756D70204469769E
:1009E00069736F72203C203100536C6565702E2E48
:1009F0002E00220A00556E6B6E6F776E20636F6D4E
:100A00006D616E643A202200256920686F757273EB
:100A1000202569206D696E7574657300446F6E657D
:100A2000207072696E74696E672066696C65004B30
:100A3000494C4C45442E200053544F505045442EB1
:100A400020005072696E7465722073746F707065E7
:100A5000642064756520746F206572726F72732EE6
:100A60002046697820746865206572726F72206113
:100A70006E6420757365204D39393920746F20728A
:100A80006573746172742E202854656D706572618F
:100A9000747572652069732072657365742E2053B6
:100AA0006574206974206166746572207265737460
:100AB000617274696E6729004E6F204C696E652003
:100AC0004E756D626572207769746820636865632E
:100AD0006B73756D2C204C617374204C696E653A94
:100AE00020004E6F20436865636B73756D207769D6
:100AF0007468206C696E65206E756D6265722C205D
:100B00004C617374204C696E653A200063686563BC
:100B10006B73756D206D69736D617463682C204C07
:100B2000617374204C696E653A20004C696E6520D3
:100B30004E756D626572206973206E6F74204C6112
:100B40007374204C696E65204E756D6265722B3131
:100B50002C204C617374204C696E653A20004D3135
:100B60003130006F6B00446F6E6520736176696E83
:100B7000672066696C652E004D3239002020506C6C
:100B8000616E6E65724275666665724279746573F0
:100B90003A20002046726565204D656D6F72793A86
:100BA0002000446563203134203230313700436FF8
:100BB0006D70696C65643A2000286E6F6E652C203C
:100BC00064656661756C7420636F6E666967290081
:100BD000207C20417574686F723A200032303135C4
:100BE0002D31322D30312031323A303000204C61FD
:100BF000737420557064617465643A200020004D60
:100C000061726C696E0020536F6674776172652043
:100C1000526573657400205761746368646F672060
:100C20005265736574002042726F776E206F757421
:100C3000205265736574002045787465726E616C2E
:100C400020526573657400506F776572557000733C
:100C500074617274002200656E7175657565696EE8
:100C600067202200FFFFFF0000A0400000A040001E
:100C70000000400000524300005243000052430075
:100C800000000000000000000000000000524300CF
:100C9000005243000052430000000000000000002A
:100CA0000000006563686F3A004572726F723A0027
:100CB00020746F6F206C6F6E672065787472757327
:100CC000696F6E2070726576656E7465640020636E
:100CD0006F6C6420657874727573696F6E207072C2
:100CE0006576656E746564007C3C3E5E2B3D3F2FEF
:100CF0005B5D3B2C2A225C004D3834205820592063
:100D00005A204500656E6473746F7073206869744F
:100D10003A205A00205A3A00656E6473746F7073FB
:100D2000206869743A20590020593A00656E64734E
:100D3000746F7073206869743A20580020583A0024
:100D4000656E6473746F7073206869743A20002450
:100D5000F4D43050C38E20C2A24017828B7011127F
:100D60007A910D816CD90AA861E108C758660761BC
:100D70005143061E4B5D05C145A7041A41110409E4
:100D80003D9803713931034036DB0265339102D45B
:100D9000305402802E1D02632CEE01752AC501B06D
:100DA00028A001102781018F2564012B244B01E02D
:100DB000223401AC211F018D200D01801FFC008415
:100DC0001EED00971DDF00B81CD200E61BC60020F8
:100DD0001BBC00641AB200B219A8000A19A0006A6C
:100DE000189900D117910040178B00B51684003177
:100DF000167E00B31579003A157300C7146F0058BA
:100E0000146A00EE1366008813630025135E00C7A2
:100E1000125B006C12570015125400C11151007082
:100E2000114F0021114B00D61049008D104700468C
:100E300010440002104200C00F4000800F3E0042EC
:100E40000F3C00060F3B00CB0E3800930E37005CC2
:100E50000E3500270E3400F30D3200C10D31009025
:100E60000D3000600D2E00320D2D00050D2C00D927
:100E70000C2B00AE0C2900850C29005C0C270035DA
:100E80000C27000E0C2600E80B2400C40B2400A045
:100E90000B23007D0B23005A0B2100390B21001876
:100EA0000B2000F80A1F00D90A1E00BB0A1E009D75
:100EB0000A1D00800A1D00630A1C00470A1B002C43
:100EC0000A1B00110A1A00F7091A00DD091900C4EB
:100ED000091900AB091900920917007B0918006372
:100EE0000917004C09160036091600200916000AD9
:100EF000091500F5081500E0081400CC081400B826
:100F0000081400A4081400900813007D0812006B58
:100F10000813005808120046081200340811002374
:100F20000811001208110001081100F0071000E07C
:100F3000071000D0071000C0071000B0070F00A175
:100F400007100091070E0083070F0074070F00655C
:100F5000070E0057070E0049070E003B070D002E35
:100F6000070E0020070D0013070D0006070D00F9FE
:100F7000060C00ED060D00E0060C00D4060C00C8BF
:100F8000060C00BC060C00B0060C00A4060B009971
:100F9000060C008D060B0082060B0077060B006C1A
:100FA000060B0061060A0057060B004C060A0042B9
:100FB000060A0038060A002E060A0024060A001A4D
:100FC000060A001006090007060A00FD050900F4DC
:100FD000050900EB050900E2050900D9050900D063
:100FE000050900C7050900BE050900B5050800ADE3
:100FF000050800A50509009C050800940508008C5B
:10100000050800840508007C050800740508006CCC
:10101000050700650508005D050700560508004E38
:10102000050700470507004005080038050700319F
:101030000507002A050700230507001C0506001602
:101040000507000F0507000805060002050700FB5D
:10105000040600F5040700EE040600E8040600E2BA
:10106000040700DB040600D5040600CF040600C90F
:10107000040600C3040600BD040600B7040600B160
:10108000040500AC040600A6040600A00405009BAD
:1010900004060095040500900406008A04050085F6
:1010A000040500800406007A04050075040500703C
:1010B0000405006B04050066040500610405005C7E
:1010C00004050057040500520405004D04050048BE
:1010D000040500430405003E0404003A04050035FD
:1010E000040500300404002C040500270404002338
:1010F0000405001E0404001A04040016040500116F
:101100000404000D040400090405000404040000A4
:10111000040400FC030400F8030400F4030400F0DA
:10112000030400EC030400E8030400E4030400E00B
:10113000030400DC030400D8030400D4030400D03B
:10114000030400CC030400C8030300C50303002408
:10115000F404D9201BC40C5C0E9804C4095F02651A
:10116000077101F405F900FB04B30048048700C1CE
:101170000369005803550003034500BE023A00848A
:1011800002310053022A002902250004022000E453
:10119000011C00C8011900AF011700980114008458
:1011A000011300710110006101100051010E004394
:1011B000010D0036010B002B010B0020010B001567
:1011C0000109000C01090003010800FB000800F3FD
:1011D000000800EB000700E4000600DE000600D86F
:1011E000000600D2000600CC000500C7000500C2C2
:1011F000000500BD000400B9000400B5000400B102
:10120000000400AD000400A9000400A5000300A232
:101210000003009F0004009B00030098000300955A
:1012200000020093000300900003008D0002008B79
:101230000003008800020086000200840003008191
:101240000002007F0002007D0002007B00020079A6
:1012500000020077000100760002007400020072B4
:10126000000100710002006F0002006D0001006CBF
:101270000002006A000100690002006700010066C8
:1012800000010065000100640002006200010061CD
:10129000000100600001005F0002005D0001005CD1
:1012A0000001005B0001005A0001005900010058D4
:1012B00000010057000100560001005500010054D4
:1012C00000010053000000530001005200010051D2
:1012D000000100500001004F0001004E0000004ED0
:1012E0000001004D0001004C0001004B0000004BCC
:1012F0000001004A000100490001004800000048C8
:1013000000010047000100460000004600010045C2
:1013100000000045000100440001004300000043BC
:1013200000010042000000420001004100000041B5
:10133000000100400001003F0000003F0001003EAE
:101340000000003E0001003D0000003D0001003CA7
:101350000000003C0000003C0001003B0000003B9E
:101360000001003A0000003A000100390000003995
:10137000000100380000003800000038000100378C
:101380000000003700010036000000360000003683
:101390000001003500000035000000350001003478
:1013A000000000340000003400010033000000336E
:1013B0000000003300010032000000320000003263
:1013C0000001003100000031000000310001003058
:1013D00000000030000000300001002F0000002F4E
:1013E0000000002F0000002F0001002E0000002E42
:1013F0000000002E0001002D0000002D0000002D37
:101400000000002D0001002C0000002C0000002C2A
:101410000000002C0001002B0000002B0000002B1E
:101420000000002B0001002A0000002A0000002A12
:101430000000002A00010029000000290000002906
:1014400000000029000000290001002800000028F9
:1014500000000028000000280000002800010027EC
:1014600000000027000000270000002700000027E0
:1014700000010026000000260000002600000026D3
:1014800000000026000100250000002500000025C6
:1014900000000025000000250000002500010024B8
:1014A00000000024000000240000002400000024AC
:1014B000000100230000002300000023000000239F
:1014C0000000002300000023000000230001002290
:1014D0000000002200000022000000220000002284
:1014E0000000002200010021000000210000002176
:1014F0000000002100000021000000210000002168
:10150000000100200000002000000020000000205A
:10151000000000200000002000000020000000204B
:101520000001001F0000001F0000001F0000001F3E
:101530000000001F0000001F0000001F0001001E2F
:101540000000001E0000001E0000001E0000004DF4
:10155000494E54454D5020747269676765726564E1
:10156000004572723A204D494E54454D5020424537
:1015700044004D415854454D502074726967676569
:10158000726564004572723A204D415854454D5081
:1015900020424544004D494E54454D5020747269D7
:1015A000676765726564004572723A204D494E5412
:1015B000454D5000626564002C2073797374656D2D
:1015C0002073746F70706564212048656174657262
:1015D0005F49443A20004D415854454D50207472A3
:1015E00069676765726564004572723A204D4158BB
:1015F00054454D50004B64200023646566696E6558
:10160000202044454641554C545F004B692000233F
:10161000646566696E65202044454641554C545FBB
:10162000004B70200023646566696E652020444588
:101630004641554C545F00504944204175746F74C5
:10164000756E652066696E697368656421205075E2
:101650007420746865206C617374204B702C204B6F
:101660006920616E64204B6420636F6E7374616ED9
:1016700074732066726F6D2062656C6F7720696E7F
:10168000746F20436F6E66696775726174696F6EFF
:101690002E6800504944204175746F74756E652042
:1016A0006661696C6564212074696D656F7574008D
:1016B00020403A00543A00423A00504944204175D3
:1016C000746F74756E65206661696C656421205461
:1016D000656D706572617475726520746F6F2068D6
:1016E00069676800204B643A2000204B693A20006B
:1016F000204B703A200020436C6173736963205063
:10170000494420002054753A2000204B753A2000AF
:10171000206D61783A2000206D696E3A20002064C7
:101720003A200020626961733A200070012C019018
:10173000012701B0012201C0011D01F001180110B3
:1017400002130130020E016002090190020401C07F
:1017500002FF000003FA004003F5008003F000D010
:1017600003EB002004E6007004E100E004DC00402C
:1017700005D700C005D2004006CD00D006C80080C5
:1017800007C3003008BE00F008B900C009B400B0BB
:101790000AAF00B00BAA00D00CA500000EA00050AC
:1017A0000F9B00C01096005012910000148C00C0D6
:1017B000158700B0178200B0197D00D01B7800009B
:1017C0001E730040206E0090226900F024640040E7
:1017D000275F0090295A00E02B5500102E50002062
:1017E000304B0010324600E033410090353C001091
:1017F00037370070383200A0392D00B03A2800A0E9
:101800003B2300603C1E00103D1900903D14001069
:101810003E0F00703E0A00C03E0500003F0000433E
:101820006172642072656D6F7665640043617264F5
:1018300020696E73657274656400473120463530E7
:101840003020452D313330004731204631303020B3
:10185000453235004D31303920533231300047396F
:101860003220204530004731204631353020453187
:101870003530004D31303920533230350047393260
:1018800020204530000920000920002D2D2D2E2D6F
:101890002D002D2D2D002D2D2D002D2D2D002D2D2C
:1018A0003A2D2D00466C6F7700466C6F77004661CD
:1018B0006E2073706565640046616E2073706565A7
:1018C000640042656400426564004E6F7A7A6C651C
:1018D000004E6F7A7A6C65005370656564005370D2
:1018E000656564004D61696E0047323800473120FC
:1018F00046323030205A33004731204632303020D3
:101900005A2D330047312058313030205931303092
:101910002046353030300047312046323030205AB2
:10192000330047312046323030205A2D33004731C2
:101930002059333020463530303000473120463290
:101940003030205A330047312046323030205A2D73
:1019500033004731205831373020463530303000A1
:1019600047312046323030205A330047312046324A
:101970003030205A2D33004731205931373020463E
:10198000353030300047312046323030205A330075
:1019900047312046313030205A2D3300473120580E
:1019A000333020593330204635303030004739301D
:1019B0000047312046313030205A333B004732381F
:1019C000205830205930205A30004E65787420530A
:1019D0007465700050726570617265004D6F766558
:1019E0002058004D6F76652059004D6F7665205A5E
:1019F0000045787472756465720045787472756418
:101A00006572004D6F7665205A004D6F76652059DE
:101A1000004D6F76652058004D6F766520617869BE
:101A200073004D6F766520302E316D6D004D6F76F1
:101A30006520316D6D004D6F76652031306D6D0024
:101A4000507265706172650054300047393220452C
:101A5000300047383200556E4C6F6164004C6F6146
:101A600064005072657061726500507265686561EE
:101A70007420504C41005072657061726500507264
:101A800065686561742041425300507265706172EF
:101A90006500436F6F6C646F776E005072656865A8
:101AA0006174204142530050726568656174205032
:101AB0004C41004368616E67652066696C616D65C5
:101AC0006E74004D38340044697361626C65207334
:101AD00074657070657273004D6F7665206178690A
:101AE0007300426564204175746F204C6576656CA7
:101AF000696E67004175746F20686F6D65004D6198
:101B0000696E0046616E2073706565640046616EA3
:101B10002073706565640042656400426564004E30
:101B20006F7A7A6C6531004E6F7A7A6C653100435A
:101B30006F6E74726F6C00526573746F726520669D
:101B400061696C736166650054656D70657261747E
:101B5000757265004D61696E00473238205830203B
:101B6000593000473238205830205930004D31303C
:101B700039205325692E67004D31343020532569B3
:101B80002E67004D3234004D323320257300022E73
:101B90002E004D61696E004F4646004F4E004D616C
:101BA000696E004C454420436F6E74726F6C004E3A
:101BB0006F2053442063617264005072696E742018
:101BC00066726F6D2053440053746F702070726999
:101BD0006E7400526573756D65207072696E740065
:101BE0005061757365207072696E7400436F6E7416
:101BF000726F6C00507265706172650054756E652D
:101C000000496E666F2073637265656E0000060999
:101C100000FE070192032120FFFF08FF07FF0000DD
:101C20000006000001070706020080808080800017
:101C300080030202060105A0A00507070600005068
:101C400050F850F850500507070600002078A070A3
:101C500028F020050707060000C0C810204098188B
:101C60000507070600006090A040A89068020303E3
:101C7000060104C040800307070601002040808061
:101C8000804020030707060100804020202040807C
:101C900005050506000120A870A820050505060019
:101CA000012020F820200203030602FFC040800527
:101CB0000101060003F8020202060200C0C0050589
:101CC0000506000108102040800507070600007087
:101CD00088888888887003070706010040C0404054
:101CE0004040E0050707060000708808708080F813
:101CF000050707060000F81020100808F005070780
:101D000006000010305090F810100507070600007C
:101D1000F880F008088870050707060000708080CA
:101D2000F0888870050707060000F80810202020BA
:101D300020050707060000708888708888700507EE
:101D400007060000708888780808700205050602FA
:101D500000C0C000C0C00206060602FFC0C000C02E
:101D60004080040707060000102040804020100536
:101D70000303060002F800F804070706010080408C
:101D800020102040800507070600007088081020FA
:101D9000002005070706000070880868A8A87005DD
:101DA0000707060000708888F888888805070706F6
:101DB0000000F08888F08888F005070706000070AA
:101DC000888080808870050707060000F088888872
:101DD0008888F0050707060000F88080F08080F80A
:101DE000050707060000F88080F08080800507075F
:101DF000060000708880B888887005070706000014
:101E0000888888F888888801070706020080808013
:101E100080808080050707060000381010101090A1
:101E2000600507070600008890A0C0A090880507FD
:101E300007060000808080808080F8050707060084
:101E40000088D8A888888888050707060000888841
:101E5000C8A89888880507070600007088888888C1
:101E60008870050707060000F08888F080808005EC
:101E7000070706000070888888A89068050707068D
:101E80000000F08888F0A090880507070600007819
:101E90008080700808F0050707060000F820202061
:101EA0002020200507070600008888888888887019
:101EB00005070706000088888888885020050707DE
:101EC0000600008888888888A85005070706000053
:101ED0008888502050888805070706000088888871
:101EE00050202020050707060000F8081020408039
:101EF000F8030707060100E08080808080E0050588
:101F0000050600018040201008030707060100E0D5
:101F10002020202020E0050303060004205088052F
:101F20000101060000F802020206020580400505D4
:101F3000050600007008788878050707060000800D
:101F400080B0C88888F0050505060000708080888C
:101F50007005070706000008086898888878050556
:101F6000050600007088F88070050707060000303D
:101F700048E0404040400506060600FF708888782B
:101F800008700507070600008080B0C888888801AF
:101F90000707060200800080808080800308080612
:101FA00001FF200020202020A04004070706000099
:101FB000808090A0C0A090030707060100C04040A9
:101FC000404040E0050505060000D0A8A8A8A805E7
:101FD0000505060000B0C8888888050505060000CC
:101FE00070888888700506060600FFF08888F080F3
:101FF000800506060600FF7888887808080505052C
:10200000060000B0C88080800505050600007080CD
:102010007008F00407070600004040E040404030F0
:1020200005050506000088888898680505050600EE
:102030000088888850200505050600008888A8A823
:102040005005050506000088502050880506060644
:1020500000FF888888780870050505060000F810DC
:102060002040F80307070601002040408040402040
:1020700001070706020080808080808080030707B8
:102080000601008040402040408005020206000218
:10209000689000000006000000000006000000003C
:1020A000000600000000000600000000000600001E
:1020B000000000060000000000060000000000060E
:1020C0000000000000060000000000060000000004
:1020D00000060000000000060000000000060000EE
:1020E00000000006000000000006000000000006DE
:1020F00000000000000600000000000600000000D4
:1021000000060000000000060000000000060000BD
:1021100000000006000000000006000000000006AD
:1021200000000000000600000000000600000000A3
:10213000000600000000000600000000000600008D
:10214000000000060000000000060000000000067D
:10215000000000000006000000000006000001076B
:102160000706020080008080808080050707060047
:10217000002070A8A0A870200507070600003040C6
:1021800040E04050A80505050600008870507088A2
:10219000050707060000885020F820F820010707EF
:1021A000060200808080008080800508080600000C
:1021B0003048205050209060030101060107A0051F
:1021C0000707060000F888B8B8B888F805070706BA
:1021D0000001700878887800F805050506000128D8
:1021E00050A05028050303060001F8080802020267
:1021F0000602064080050707060000F888A88898B0
:10220000A8F8050101060006F804040406000360AE
:102210009090600507070600002020F8202000F8B5
:1022200004050506000360902040F0030505060044
:1022300003E020E020E002020206020640800508DA
:10224000080600FF8888888898E8808005070706C8
:10225000000078989878181818020202060202C046
:10226000C00202020602FF4080030505060003408B
:10227000C04040E0050707060001708888887000AC
:10228000F8050505060001A0502850A0050707061F
:1022900000008890A858B8080805070706000088BD
:1022A00090B848982038050808060000C040C0488B
:1022B000D83808080507070600002000204080885D
:1022C000700508080600004020007088F88888051E
:1022D00008080600001020007088F88888050808A3
:1022E0000600002050007088F8888805080806005D
:1022F000006890007088F88888050808060000507B
:1023000000708888F888880508080600002050209A
:102310007088F888880507070600003860A0B8E0D4
:10232000A0B80508080600FF7088808088702060CB
:10233000050808060000402000F880F080F8050835
:1023400008060000081000F880F080F8050808066C
:102350000000205000F880F080F805070706000014
:102360005000F880F080F803080806010080400063
:10237000E0404040E0030808060100204000E04043
:102380004040E003080806010040A000E040404053
:10239000E0030707060100A000E0404040E0050719
:1023A00007060000704848E848487005080806001D
:1023B0000068900088C8A8988805080806000040B2
:1023C0002070888888887005080806000010207032
:1023D00088888888700508080600002050007088EA
:1023E0008888700508080600006890007088888852
:1023F00070050808060000500070888888887005FD
:10240000050506000188502050880508080600FFD1
:102410001070A8A8A8A87040050808060000402071
:102420008888888888700508080600001020888839
:102430008888887005080806000020500088888871
:102440008870050808060000500088888888887011
:1024500005080806000010208850202020200509CB
:10246000090600FFC040704848704040E00408087A
:102470000601FF609090A09090E08005080806009B
:1024800000402000700878887805080806000010D1
:1024900020007008788878050808060000205000A1
:1024A00070087888780508080600006890007008B1
:1024B000788878050707060000500070087888784B
:1024C0000508080600002050207008788878050666
:1024D00006060000D02878A0A8500506060600FFD2
:1024E0007080887020600508080600004020007099
:1024F00088F880700508080600001020007088F831
:1025000080700508080600002050007088F8807070
:1025100005070706000050007088F880700308085F
:1025200006010080400040C04040E003080806016A
:102530000020400040C04040E00308080601004081
:10254000A00040C04040E0030707060100A0004093
:10255000C04040E0050707060000A040A0107888B2
:1025600070050808060000689000B0C888888805D3
:102570000808060000402000708888887005080858
:102580000600001020007088888870050808060082
:1025900000205000708888887005080806000068D0
:1025A000900070888888700507070600005000704A
:1025B000888888700505050600012000F8002005C0
:1025C00007070600FF1070A8A8A8704005080806B5
:1025D00000004020008888889868050808060000E8
:1025E0001020008888889868050808060000205098
:1025F00000888888986805070706000050008888CA
:102600008898680509090600FF102000888888F866
:1026100008700407070601FFC04060506040E005F5
:1026200008080600FF5000888888780870000609AE
:1026300000FE000000000001090008FE000005087F
:102640000806000040F0C888889878100508080639
:102650000000C0F88888888888F80505050600010C
:102660002030F830200508080600002070F82020EF
:102670002020E00509090600FF2070A8A8B8888876
:1026800070200509090600FFE080C0B0A8283028A6
:10269000280509090600FFF8A88888888888A8F80E
:1026A000050A0A0600FE205050505088A8A88870DD
:1026B00003030306000340A04000000000000000E8
:1026C0000000000000003FFFF000000000000000DC
:1026D00000000000000038007000808100800000D1
:1026E00000000000000030FC3000C0811FC000006E
:1026F00000000000000020FC10012081108000007C
:1027000000000000000020781002148FDF8000001D
:102710000000000000002030100404811080000040
:102720000000000000002C00D00BE4839F801FE01D
:102730000000104100002E31D002248550803FF06F
:102740000000082080002F7BD00224891F803FF0EA
:102750000000082080002F7BD002248110003FF071
:102760000000104100002E31D002C480A1001FE003
:102770000000208200002C00D002008290801FE028
:102780000000410400002030100210828A403FF017
:1027900000004104000020781002128482003FF003
:1027A00000002082000020FC1001F1007E003FF0BC
:1027B00000001041000030FC3000000000000FC09D
:1027C00000000000000038007000000000000780DA
:1027D0000000FFFFC0003FFFF0000000000003000A
:1027E0000000FFFFC000000000000000000000002B
:1027F0000000000000003FFFF000000000000000AB
:10280000000000000000380070008081008000009F
:1028100000000000000033873000C0811FC00000AE
:102820000000000000002787900120811080000038
:102830000000000000002F87D002148FDF8000000E
:102840000000000000002F87D004048110800000E9
:102850000000000000002F03D00BE4839F801FE0E6
:1028600000000820800020301002248550803FF0B6
:102870000000041040002078100224891F803FF0DF
:1028800000000410400020781002248110003FF066
:1028900000000820800020301002C480A1001FE04A
:1028A0000000104100002F03D002008290801FE042
:1028B0000000208200002F87D00210828A403FF063
:1028C0000000208200002F87D002128482003FF097
:1028D00000001041000027879001F1007E003FF0CA
:1028E00000000820800033873000000000000FC087
:1028F00000000000000038007000000000000780A9
:102900000000FFFFC0003FFFF000000000000300D8
:102910000000FFFFC00000000000000000000000F9
:1029200000000000000000000000000000000000A7
:102930000000000000000000000000000000000097
:102940000000000000000000000000000000000087
:102950000000000000000000000000000000000077
:102960000000000000000000000000000000000067
:102970000000000000000000000000000000000057
:102980000000000000000000000000000000000047
:102990000000000000000000000000000000000037
:1029A0000000000000000000000000000000000027
:1029B0000000000000000000000000000000000017
:1029C0000000000000000000000000000000000007
:1029D00000000000000000000000000000000000F7
:1029E00000000000000000000000000000000000E7
:1029F00000000000000000000000000000000000D7
:102A000000000000000000000000000000000000C6
:102A100000000000000000000000000000000000B6
:102A200000000000000000000000000000000000A6
:102A30000000000000000000000000000000000096
:102A40000000000000000000000000000000000086
:102A50000000000000000000000000000000000076
:102A60000000000000000000000000000000000066
:102A70000000000000000000000000000000000056
:102A80000000000000000000000000000000000C3A
:102A90000000000000007C000001FC000000007C41
:102AA000038000000000C63F80031C000000000CF3
:102AB000038030000000C318C0060C000000000CAA
:102AC000000030000000C31860060C000000000C7D
:102AD0000000300000000318300C00F787C1F80C2C
:102AE0000780FE3DE0000618300C003D8C630C0CA6
:102AF00001803018C0001E18300C003818330C0C40
:102B00000180300D80000318300C003018303C0C70
:102B10000180300D80000198300C00301FF1EC0C6A
:102B20000180300D80000198300C0C3018030C0C23
:102B3000018030078000C19830060C3018330C0C2F
:102B4000018030070000C198600718300C631F0C2B
:102B5000018033030000C318C001F0FC07C1FF7FF0
:102B600087E01E0300007E3F8000000000000000A0
:102B7000000000060000000000000000000000004F
:102B80000000001E00000000000000000000000027
:102B90000000001C00000000000000000000000019
:102BA0000000000000000000000000000000000025
:102BB0000000000000000000000000000000000015
:102BC0000000000000000000000000000000000005
:102BD00000000000000000000000000000000000F5
:102BE00000000000000000000000000000000000E5
:102BF00000000000000000000000000000000000D5
:102C000000000000000000000000000000000000C4
:102C100000000000000000000000000000000000B4
:102C200000000000000000000000000000000000A4
:102C30000000000000000000000000000000000094
:102C40000000000000000000000000000000000084
:102C50000000000000000000000000000000000074
:102C60000000000000000000000000000000000064
:102C70000000000000000000000000000000000054
:102C80000000000000000000000000000000000044
:102C90000000000000000000000000000000000034
:102CA0000000000000000000000000000000000024
:102CB0000000000000000000000000000000000014
:102CC0000000000000000000000000000000000004
:102CD00000000000000000000000000000000000F4
:102CE00000000000000000000000000000000000E4
:102CF00000000000000000000000000000000000D4
:102D000000000000000000000000000000000000C3
:102D1000000000000000000000FFE0FFD11000FFF5
:102D2000FEFFD0FFE0FFC1FFD140A0C8A6A22FF850
:102D300000238127AC00AFFF64A5FF64FF64A4FFFC
:102D4000D0FFFE00000A0B02090C0D0E0807030459
:102D50000100000000000000000000000000000072
:102D60000000000000000000000000000000001251
:102D70001110000000000000000000000000000032
:102D800000000000000000000001021020200808E0
:102D900010204010204080020102010804020101BD
:102DA00002040810204080804020100804020180A6
:102DB00004020180402010080402010804020101FD
:102DC0000204081020408001020408102040800501
:102DD000050505070508080808020202020A0A0894
:102DE00008040404040101010101010101030303BA
:102DF0000303030303040707070C0C0C0C0C0C0C57
:102E00000C0202020206060606060606060B0B0B5D
:102E10000B0B0B0B0B000020002300260029002CBD
:102E2000002F00320000010000030106010901002B
:102E3000002200250028002B002E00310034000263
:102E4000010000050108010B0100002100240027FA
:102E5000002A002D003000330001010000040107AA
:102E6000010A014E414E494E495459494E46CDCC76
:102E7000CC3D0AD7233C17B7D13877CC2B32959568
:102E8000E6241FB14F0A000020410000C842004064
:102E90001C4620BCBE4CCA1B0E5AAEC59D746A4E61
:102EA0005DA00EA16E4E11241FBECFEFD1E2DEBF9A
:102EB000CDBF00E00CBF14E0A0E0B2E0E6E5F4E72F
:102EC00001E00BBF02C007900D92A434B107D9F7FF
:102ED00024E1A4E4B4E001C01D92A733B207E1F7F6
:102EE0001EE2C4EADEE200E006C022970109FE010C
:102EF0000BBF0E94ECB3CE39D10780E00807A9F7D9
:102F00000E9499AE0C941ABA0C940000452B31F033
:102F1000389A409A0E9465AC409808950C9465AC2C
:102F2000FC0114821782138212828EEA93E091834D
:102F3000808308952EEA33E0FC01318320832781CA
:102F4000222319F004960C942E660895CF92DF92F6
:102F5000EF92FF920F931F93CF93DF93EC018F9625
:102F6000DFDFCE01805B9F4FDBDF7E012FE6E20ECD
:102F7000F11C87016E013BE5C31A3EEFD30AC8017D
:102F8000CFDF015E1F4F0C151D05C9F7FE01E95586
:102F9000FE4F89E1818314823596178ACE018653CC
:102FA0009E4FBEDFFE01E558FD4F10821182128256
:102FB0001382389610821182128213821A821B8227
:102FC00018821982F80111821082FE01E751FE4F2A
:102FD000108286E391E0F7019C011192215030406C
:102FE000E1F7FE01E957FD4F81E080831EA61DA693
:102FF0000E9436ACC158DD4F68577C4E8F4F9F4FB3
:10300000688379838A839B83DF91CF911F910F918E
:10301000FF90EF90DF90CF900895FC0120E03EE21A
:10302000DB014C91403241F0283011F4308331966D
:10303000DB014C91408331962F5F6F5F7F4F2B30C8
:1030400079F7108208952F923F924F925F926F927C
:103050007F928F929F92AF92BF92CF92DF92EF9228
:10306000FF920F931F93CF93DF93CDB7DEB7C65771
:10307000D1090FB6F894DEBF0FBECDBF8C016B0136
:103080005A0129012DB73EB7E3963FAF2EAFE39724
:10309000AD961FAEAD9734E0A30EB11C4296E596F7
:1030A0009FAF8EAFE597180198E7291A9DEF390A6F
:1030B000F801E657FD4FAF96FFAFEEAFAF9738017F
:1030C000F5E06F0E711C7E012FE5E20EF11C80E42D
:1030D00090E08C0F9D1F0496E7969FAF8EAFE79709
:1030E000E5964EAD5FADE597BE016F5F7F4FC501C1
:1030F0000E94946418160CF03EC12C85322F387152
:10310000303109F0BCC0F1018081918101970297B3
:1031100008F4B5C02DB73EB7E1963FAF2EAFE197AB
:10312000BE016F5F7F4FC70178DF81E0F6019081BC
:1031300091119DC0E1E0F0E0D7010D900020E9F78A
:10314000EE19FF09EA0FFB1F31962DB73EB72E1B74
:103150003F0B0FB6F8943EBF0FBE2DBFEDB7FEB7C5
:1031600031964F01882319F068EE72E001C0B60174
:10317000C4010E9431B7B701C4010E9412B768EEC2
:1031800072E0C4010E9412B7CE01805C9F4FC8DE7E
:1031900021E0A701B501E7968EAD9FADE7970E94AC
:1031A0002568811137C0F10180819181892B91F5CA
:1031B000E3EAFCE08491882341F09091C00095FF00
:1031C000FCCF8093C6003196F5CFEAEEF2E0819114
:1031D000882339F09091C00095FFFCCF8093C60002
:1031E000F6CF8091C00085FFFCCF8AE08093C600B7
:1031F000F7018191882339F09091C00095FFFCCFB1
:103200008093C600F6CF8091C00085FFFCCF8AE096
:103210008093C6008BE1FE01EC5BFF4FDE019596CB
:1032200001900D928A95E1F724968EAD9FAD24977B
:103230009CA38BA38EEA93E09AA389A320E030E0BD
:10324000AE014F5D5F4FB401C801FDDECE01819636
:1032500071DECE01805C9F4F6DDEE1962EAD3FADFD
:10326000E1970FB6F8943EBF0FBE2DBF39CF80E077
:1032700001900020E9F73197EC19FD095DCF8981B4
:10328000882309F478C08E3209F42ACFF8018289A4
:103290008E3209F425CF23FD23CF81E0303109F0B0
:1032A00080E0F8018483811108C08985873409F0A2
:1032B00017CF8A858E3709F413CFF1018081918170
:1032C0008130910569F08230910581F1892B09F0F7
:1032D00007CFBE016F5F7F4FC3019FDEF60110C0B5
:1032E000AF96EEADFFADAF9780819181019691834E
:1032F0008083F6CE9091C00095FFFCCF8093C600EE
:1033000081918111F7CFF3018191882339F0909158
:10331000C00095FFFCCF8093C600F6CF8091C0001F
:1033200085FFFCCF8AE08093C600DACEBE016F5FD6
:103330007F4FC30172DE4114510439F0B301C20161
:103340000E94FFB6892B79F416C0AD96FFADAD97FC
:103350002F2F30E0AF96EEADFFADAF97808191811A
:103360002817390741F0AD96FFADAD97FF5FAD96D9
:10337000FFAFAD97B5CEE3962EAD3FADE3970FB659
:10338000F8943EBF0FBE2DBFCA58DF4F0FB6F8945A
:10339000DEBF0FBECDBFDF91CF911F910F91FF9088
:1033A000EF90DF90CF90BF90AF909F908F907F90E5
:1033B0006F905F904F903F902F900895EF92FF9203
:1033C0000F931F93CF93DF93CDB7DEB76F970FB6F1
:1033D000F894DEBF0FBECDBF8C01FC01E857FD4F56
:1033E000118210827C0183E3E80EF11C40E050E082
:1033F000BA01C7010E944B658BE1F701DE0115960A
:1034000001900D928A95E1F7F80181A992A99C8318
:103410008B838EEA93E09A83898320E030E0AE01CB
:103420004F5F5F4F65EC73E0C8010DDECE01019682
:1034300081DD6F960FB6F894DEBF0FBECDBFDF9172
:10344000CF911F910F91FF90EF9008952BE1FB0119
:103450003496DC01149601900D922A95E1F7FB0158
:1034600022813381FC01338322830895EF92FF92FE
:103470000F931F93CF93DF93EC011B828EA98823B8
:1034800021F0CE01C3960E942E667E0189E5E81ADE
:103490008EEFF80A45E360E0C7010E94AB6081113E
:1034A0001FC0E3EAFCE08491882341F09091C000C2
:1034B00095FFFCCF8093C6003196F5CFE4E9F3E0A9
:1034C0008491882341F09091C00095FFFCCF8093B8
:1034D000C6003196F5CF8091C00085FFFCCF76C045
:1034E0008E0104551E4F41E0B701C8010E942F6EA6
:1034F000811126C040E0B701C8010E942F6E8111E2
:103500001FC0E9EAFCE08491882341F09091C0005B
:1035100095FFFCCF8093C6003196F5CFE1E8F3E04C
:103520008491882341F09091C00095FFFCCF809357
:10353000C6003196F5CF8091C00085FFFCCF46C014
:10354000B801CE01C3960E94386381111FC0E9EA19
:10355000FCE08491882341F09091C00095FFFCCF5E
:103560008093C6003196F5CFE1E7F3E0849188239C
:1035700041F09091C00095FFFCCF8093C60031963A
:10358000F5CF8091C00085FFFCCF20C081E08B8308
:10359000E3EAFCE08491882341F09091C00095FF1C
:1035A000FCCF8093C6003196F5CFE6E6F3E0849138
:1035B000882341F09091C00095FFFCCF8093C60016
:1035C0003196F5CF8091C00085FFFCCF8AE08093D3
:1035D000C6008E01015D1F4FB801CE01805B9F4F79
:1035E00035DFC25BDF4F19830883DF91CF911F91D5
:1035F0000F91FF90EF900895FC01128213820895BD
:10360000FC012381222311F021E022830895FC0193
:103610002281211112820895AF92BF92CF92DF9240
:10362000EF92FF920F931F93CF93DF931F92CDB72B
:10363000DEB78C018FE2FB0181935F01D12C41E069
:103640007801FBE5EF1AFEEFFF0A8FE1C82E2D2D62
:1036500030E0F7018081918128173907D8F4C29EA4
:10366000C001C39E900D11248D589F4FB501800F4E
:10367000911F49830E94DF62C50149815C01019667
:10368000F5012081222321F04D3810F44F5FF6CF51
:10369000D394DDCF47FD11C0B501C80182539E4FC1
:1036A0000F90DF91CF911F910F91FF90EF90DF90DE
:1036B000CF90BF90AF900C94DF62F50110820F9015
:1036C000DF91CF911F910F91FF90EF90DF90CF90FE
:1036D000BF90AF9008953F924F925F926F927F920A
:1036E0008F929F92AF92BF92CF92DF92EF92FF9212
:1036F0000F931F93CF93DF93CDB7DEB7AC970FB681
:10370000F894DEBF0FBECDBF7C015B01FC0183815D
:10371000882309F4EDC0C70182539E4F0E942E6694
:10372000F7011282CE0101966C01FADB27019EE4BB
:10373000490E511CC7018F96F20191838083F501D8
:1037400080818F3209F077C06FE270E0C5010E947E
:103750001DB78C010F5F1F4F9AE0392E011511051F
:1037600009F46FC06FE270E0C8010E941DB74C0100
:10377000009709F467C00817190708F063C03C01F7
:10378000601A710AA301B801CE0180960E9446B763
:10379000E0E2F0E0EC0FFD1FE60DF71D1082FE01E8
:1037A000B0968191882339F09091C00095FFFCCFAD
:1037B0008093C600F6CF8091C00085FFFCCF309289
:1037C000C600F201608171816115710519F06C5FAD
:1037D0007F4F02C060E070E021E0AE01405E5F4FCD
:1037E000CE0105960E94256881111EC0E2E4F2E038
:1037F0008491882341F09091C00095FFFCCF809385
:10380000C6003196F5CFFE01B0968191882339F03C
:103810009091C00095FFFCCF8093C600F6CF8091B9
:10382000C00085FFFCCF5FC0F201D182C08284015D
:103830000F5F1F4F93CFC701805B9F4FF2019183B2
:1038400080838501F20180819181009711F00496B7
:1038500002C080E090E0B8010E94FB68811103C0C3
:10386000ECE1F2E02EC0E4E3F2E08491882341F041
:103870009091C00095FFFCCF8093C6003196F5CFA4
:10388000F8018191882339F09091C00095FFFCCF19
:103890008093C600F6CF8091C00085FFFCCF8AE000
:1038A0008093C600F701ED57FD4F108211821282FE
:1038B00013821CC09091C00095FFFCCF8093C6007E
:1038C000319684918111F6CFF8018191882339F0E6
:1038D0009091C00095FFFCCF8093C600F6CF8091F9
:1038E000C00085FFFCCF8EE28093C600C60122DBBC
:1038F000AC960FB6F894DEBF0FBECDBFDF91CF916F
:103900001F910F91FF90EF90DF90CF90BF90AF90FD
:103910009F908F907F906F905F904F903F90089511
:10392000CF93DF93EC018B81811103C0EAEFF1E0CB
:1039300039C0EAE0F2E08491882341F09091C00020
:1039400095FFFCCF8093C6003196F5CFFE01ED5771
:10395000FD4F40815181628173812AE030E084E42F
:1039600094E00E94A22A8091C00085FFFCCF8FE2E4
:103970008093C600C558DD4F488159816A817B819B
:103980002AE030E084E494E00E94A22A8091C00002
:1039900085FFFCCF0EC09091C00095FFFCCF8093B7
:1039A000C600319684918111F6CF8091C00085FFC9
:1039B000FCCF8AE08093C600DF91CF910895AF924B
:1039C000BF92CF92DF92EF92FF920F931F93CF930C
:1039D000DF935C01EB01FB0101900020E9F78F010F
:1039E00001501109061B170B6C01F2E3CF1AFEEF11
:1039F000DF0AF60110826EE470E0CE010E941DB76E
:103A00007C01009729F4F8013197EC0FFD1F0DC0E0
:103A100060E270E00E941DB7EC0121966AE270E05E
:103A2000C7010E941DB7FC0131978DE081838AE0B8
:103A300082831382BE01C50186539E4F0E94D86ABD
:103A4000F6018081882309F1E9EAFCE0849188236A
:103A500041F09091C00095FFFCCF8093C600319655
:103A6000F5CFE4EEF1E08491882341F09091C0001D
:103A700095FFFCCF8093C6003196F5CF8091C000B2
:103A800085FFFCCF8AE08093C600DF91CF911F9124
:103A90000F91FF90EF90DF90CF90BF90AF9008957F
:103AA0002F923F924F925F926F927F928F929F924E
:103AB000AF92BF92CF92DF92EF92FF920F931F933C
:103AC000CF93DF93CDB7DEB7CC5BD1090FB6F894B7
:103AD000DEBF0FBECDBF8C0189579D4F5C016111C8
:103AE00012C0FC018081882309F4B1C03897C080DE
:103AF000D180E280F3800E9436ACC616D706E80675
:103B0000F90608F4A4C0F5011082F801838181113F
:103B100007C0C801ABDCF8018381882309F497C092
:103B2000F80186A58F9385A58F938BED91E09F93E8
:103B30008F937E01F3EBEF0EF11CFF92EF920E9448
:103B400055B70F900F900F900F900F900F90B12CD2
:103B5000F70101900020E9F73197EE19FF09BE1631
:103B600084F46701CB0CD11CB7FCDA94F601808198
:103B7000992787FD90950E94A0B6F6018083B394A3
:103B8000E7CF4801F3E38F0E911C40E050E0BA010B
:103B9000C4010E944B65512C6E0183E9C80ED11CF3
:103BA00024ED622E21E0722EFE0131965F0140E08D
:103BB00050E0B601C4010E9494641816E4F5412C4B
:103BC000F60101900020E9F73197EC19FD094E1636
:103BD00074F41601240C311C47FC3A94F1018081E5
:103BE00090E00E94A0B6F10180834394E9CFF601F2
:103BF00081858E37E1F245E050E0B701C6010E94B1
:103C000038B7892BA1F6FF92EF927F926F92BF9205
:103C1000AF920E9455B7C5010E94912B80ED91E0B3
:103C20000E945A2C0F900F900F900F900F900F90B2
:103C300055245394BCCF511004C08FEF9FEFF8016F
:103C400004C0F80185A596A5019696A785A7C4543A
:103C5000DF4F0FB6F894DEBF0FBECDBFDF91CF911F
:103C60001F910F91FF90EF90DF90CF90BF90AF909A
:103C70009F908F907F906F905F904F903F902F908C
:103C800008950F931F93CF93DF93EC018C010253A0
:103C90001E4FC8010E94E465C8010E942E66198269
:103CA0001882DF91CF911F910F910895CF92DF92EB
:103CB000EF92FF920F931F93CF93DF93CDB7DEB7B1
:103CC0006F970FB6F894DEBF0FBECDBF8C016A01AF
:103CD0007C018EE4E80EF11CC801805B9F4FF70168
:103CE00091838083E65CFD4F22E030E031832083C6
:103CF00032967183608340E050E0BA0104960E94DE
:103D00004B65F701808191812BE1FC013496DE0146
:103D1000159601900D922A95E1F7FC01828193811D
:103D20009C838B838EEA93E09A8389839601AE010C
:103D30004F5F5F4F65EC73E0C80185D9CE010196F6
:103D4000F9D86F960FB6F894DEBF0FBECDBFDF91E6
:103D5000CF911F910F91FF90EF90DF90CF9008953A
:103D60002F923F924F925F926F927F928F929F928B
:103D7000AF92BF92CF92DF92EF92FF920F931F9379
:103D8000CF93DF93CDB7DEB7AC970FB6F894DEBF15
:103D90000FBECDBF8C016B01342EFC0183818823C3
:103DA00009F4CDC2EF52FE4F8081882309F4FAC096
:103DB000222319F0E3EAFCE0CDC07801F7E1EF1A25
:103DC000FEEFFF0AF7018081811103C0E3EAFCE006
:103DD00035C0E9EAFCE08491882341F09091C0006D
:103DE00095FFFCCF8093C6003196F5CFE3E2F3E078
:103DF0008491882341F09091C00095FFFCCF80937F
:103E0000C6003196F5CF4AE050E061E070E084E40E
:103E100094E00E94762A8091C00085FFFCCF8AE062
:103E20008093C6008AE193E00E94873F88C2909108
:103E3000C00095FFFCCF8093C6003196849181111C
:103E4000F6CFE1E0F3E08491882341F09091C00047
:103E500095FFFCCF8093C6003196F5CFF601819196
:103E6000882339F09091C00095FFFCCF8093C60065
:103E7000F6CFE6EFF2E08491882341F09091C00004
:103E800095FFFCCF8093C6003196F5CFF701808176
:103E90004DE8B42EB801B89E600D711D1124625119
:103EA0007E4FC801B9DBF7018081F801B89EE00DB3
:103EB000F11D1124E251FE4F8191882339F0909138
:103EC000C00095FFFCCF8093C600F6CFE0EFF2E094
:103ED0008491882341F09091C00095FFFCCF80939E
:103EE000C6003196F5CF5801FDE7AF1AFDEFBF0AC6
:103EF000F50140815181628173812AE030E084E4E0
:103F000094E00E94A22A8091C00085FFFCCF8AE045
:103F10008093C600F7012081F80184E0289FE00D1E
:103F2000F11D1124AF0146515E4FF5018081918151
:103F3000A281B381FA0180839183A283B3832F5F2F
:103F4000F701208329C09091C00095FFFCCF80939A
:103F5000C600319684918111F6CFEFEDF2E08491A5
:103F6000882341F09091C00095FFFCCF8093C6005C
:103F70003196F5CFF6018191882339F09091C000F8
:103F800095FFFCCF8093C600F6CF8091C00085FFDF
:103F9000FCCF8AE08093C600C80182539E4F0E94E6
:103FA0002E6630C0F801E751FE4F1082E3EAFCE0D4
:103FB0008491882341F09091C00095FFFCCF8093BD
:103FC000C6003196F5CFEEECF2E08491882341F003
:103FD0009091C00095FFFCCF8093C6003196F5CF3D
:103FE000F6018191882339F09091C00095FFFCCFB4
:103FF0008093C600F6CF8091C00085FFFCCF8AE099
:104000008093C600F8011282CE0101965C010E94E5
:10401000901728019EE4490E511CC8018F96F201A9
:1040200091838083F60180818F3209F077C0760119
:10403000FFEFEF1AFF0A3AE0232EE114F10409F42E
:1040400073C06FE270E0C7010E941DB74C0100977A
:1040500009F46BC0E816F90608F067C03C016E1859
:104060007F08A301B701CE0180960E9446B7E0E227
:10407000F0E0EC0FFD1FE60DF71D1082FE01B0967B
:104080008191882339F09091C00095FFFCCF8093F7
:10409000C600F6CF8091C00085FFFCCF2092C600FD
:1040A000F201608171816115710519F06C5F7F4FBC
:1040B00002C060E070E021E0AE01405E5F4FCE01E3
:1040C00005960E942568811121C0EAEBF2E08491F7
:1040D000882341F09091C00095FFFCCF8093C600EB
:1040E0003196F5CFFE01B0968191882339F09091F9
:1040F000C00095FFFCCF8093C600F6CF8091C00032
:1041000085FFFCCF8EE28093C60016C1F201B1821A
:10411000A0827401FFEFEF1AFF0A8FCFC801805B06
:104120009F4FF201918380837601C80182539E4F95
:104130004C01F20160817181332009F4A3C0611543
:10414000710519F06C5F7F4F02C060E070E021E004
:10415000A701C4010E942568811103C0E2E8F2E0D2
:1041600075C0980125583D4FF40181899289A38932
:10417000B489F90180839183A283B383ECEAF2E0EE
:104180008491882341F09091C00095FFFCCF8093EB
:10419000C6003196F5CFF7018191882339F09091CF
:1041A000C00095FFFCCF8093C600F6CFE4EAF2E0B2
:1041B0008491882341F09091C00095FFFCCF8093BB
:1041C000C6003196F5CFF90140815181628173813A
:1041D0002AE030E084E494E00E94A22A8091C000AA
:1041E00085FFFCCF8AE08093C600F801ED57FD4FB4
:1041F0001082118212821382E6E9F2E08491882310
:1042000041F09091C00095FFFCCF8093C60031969D
:10421000F5CF8091C00085FFFCCF8AE08093C60077
:10422000A70160E070E0C80141DDF80182898823C0
:1042300019F0C801429601C0C70160E07BC09091AF
:10424000C00095FFFCCF8093C60031968491811108
:10425000F6CFF7018191882339F09091C00095FF46
:10426000FCCF8093C600F6CFEFE7F2E0849188237D
:1042700009F462C09091C00095FFFCCF8093C60006
:104280003196F4CF6115710519F06C5F7F4F02C054
:1042900060E070E026E5A701C4010E942568811155
:1042A00025C0EBE6F2E08491882341F09091C000B4
:1042B00095FFFCCF8093C6003196F5CFF701819131
:1042C000882339F09091C00095FFFCCF8093C60001
:1042D000F6CFE8E6F2E08491882371F19091C00076
:1042E00095FFFCCF8093C6003196F5CF81E0F801B1
:1042F0008083E6E5F2E08491882341F09091C0004C
:1043000095FFFCCF8093C6003196F5CFF6018191E1
:10431000882339F09091C00095FFFCCF8093C600B0
:10432000F6CF8091C00085FFFCCF8AE08093C60065
:1043300060E0C7010E949C92C5010E949A17AC964A
:104340000FB6F894DEBF0FBECDBFDF91CF911F91A6
:104350000F91FF90EF90DF90CF90BF90AF909F9024
:104360008F907F906F905F904F903F902F90089527
:1043700021E0FC01218340E0F3CCCF92DF92EF9269
:10438000FF920F931F93CF93DF93CDB7DEB76F9755
:104390000FB6F894DEBF0FBECDBF8C016C012EE4CA
:1043A000C20ED11C805B9F4FF60191838083E65C37
:1043B000FD4F21E030E0318320837801F6E7EF1AEA
:1043C000FDEFFF0AF7011182108240E050E0BA01D0
:1043D00004960E944B65F601808191812BE1FC01DE
:1043E0003496DE01159601900D922A95E1F7FC01B5
:1043F000828193819C838B838EEA93E09A83898365
:1044000020E030E0AE014F5F5F4F65EC73E0C80124
:104410000E942318CE0101960E949A17F70180810D
:1044200091816F960FB6F894DEBF0FBECDBFDF91BE
:10443000CF911F910F91FF90EF90DF90CF90089553
:10444000AF92BF92CF92DF92EF92FF920F931F93A2
:10445000CF93DF93CDB7DEB76F970FB6F894DEBF7B
:104460000FBECDBF8C017B01CE0101960E9490173B
:10447000F801E95AFF4F80816801811104C02FE2E1
:10448000C20ED11C03C080E5C80ED11C21E0A701DB
:10449000B6016C5F7F4FCE0105960E9425688111A1
:1044A0002DC0E3EAFCE08491882341F09091C000A4
:1044B00095FFFCCF8093C6003196F5CFEAEBF1E093
:1044C0008491882341F09091C00095FFFCCF8093A8
:1044D000C6003196F5CFF7018191882339F090918C
:1044E000C00095FFFCCF8093C600F6CF8091C0003E
:1044F00085FFFCCF8AE08093C60036C0F801EB55FB
:10450000FE4F808191818A30910530F59C012F5FAB
:104510003F4F318320832FE1289F7001299FF00CAA
:1045200011242FE6E20EF11CE00EF11E5C01B70132
:10453000C7014F960E94261A81E0A81AB1082FE100
:10454000E21AF1088FEFA816B80689F7B601C8017C
:1045500081599F4F0E94261ABE016F5F7F4FC8018D
:10456000805B9F4F0E94261ACE0101960E949A17E7
:104570006F960FB6F894DEBF0FBECDBFDF91CF911F
:104580001F910F91FF90EF90DF90CF90BF90AF9071
:104590000895EF92FF920F931F93CF93DF93EC0157
:1045A000CB55DE4F2881398121153105F9F0215095
:1045B0003109398328838C0101591F4FB801805B71
:1045C0009F4F0E94261AC80100E010E07C012FE1F5
:1045D000E20EF11C288139810217130738F40F5FAE
:1045E0001F4FB7010E94261AC701F0CFDF91CF916C
:1045F0001F910F91FF90EF900895EF92FF920F930C
:104600001F93CF93DF93EC010E949F778E01075198
:104610001E4FF80180819E0122533E4F790188236D
:10462000A1F1C9010E942E66F8018081815080832A
:10463000BE01FDE88F9F600D711D112462517E4FF8
:1046400021E041E0CE018CDBF8018081FE0124E015
:10465000829FE00DF11D1124E651FE4F40815181F2
:1046600062817381FE01ED57FD4F40835183628368
:104670007383C7010E944B65CE01DF91CF911F91DB
:104680000F91FF90EF900C94001BC9010E942E66C1
:104690001A828EEA91E00E945A2C8091500E882353
:1046A000F9F01092500EC091EE04D0E0CC0FDD1F57
:1046B000C05CDD4E68817981882777FD8095982FD1
:1046C0000E9469B02091370230913802409139023E
:1046D00050913A020E94CAB1181614F41982188235
:1046E000DF91CF911F910F91FF90EF900895AF92BE
:1046F000BF92DF92EF92FF920F931F93CF93DF93BE
:10470000CDB7DEB7E0970FB6F894DEBF0FBECDBFD2
:1047100080E1E2EBF2E0DE01919601900D928A9544
:10472000E1F780E1E2ECF2E0DE01519601900D92BA
:104730008A95E1F780E1E2EDF2E0DE011196019069
:104740000D928A95E1F77E0181E2E80EF11C01E904
:104750001EE0BE016F5E7F4F41EA5EE09E012F5F6B
:104760003F4F91E8A92E9EE0B92ED12CF7018191FF
:104770009191A191B1917F01F80181939193A193BE
:10478000B1938F01FB0181919191A191B191BF01F1
:10479000FA0181939193A193B193AF01F9018191B2
:1047A0009191A191B1919F01F50181939193A19371
:1047B000B1935F01D394F4E0DF12D8CF0E94765F0B
:1047C00080E090E0AAEFB3E48093790E90937A0EA4
:1047D000A0937B0EB0937C0E8093750E9093760E13
:1047E000A093770EB093780E80E090E0AAE7B4E44F
:1047F0008093710E9093720EA093730EB093740E0B
:1048000010927D0E10927E0E10927F0E1092800EEE
:1048100080E29EE4A0E0B0E08093B10E9093B20EEF
:10482000A093B30EB093B40E1092610E1092620E6C
:104830001092630E1092640E80E090E0A0EAB1E462
:1048400080936D0E90936E0EA0936F0EB093700ECA
:104850008DEC9CECACECBEE38093690E90936A0EF9
:10486000A0936B0EB0936C0E80E090E0A0EAB0E4F1
:104870008093650E9093660EA093670EB093680EBA
:10488000109203051092040510920505109206057A
:104890001092FF041092000510920105109202057B
:1048A0001092FB041092FC041092FD041092FE047E
:1048B0008EEB90E09093D2128093D11288E290E038
:1048C0009093D0128093CF121092CE121092CD12EC
:1048D00080EF90E09093CC128093CB1284E690E02E
:1048E0009093CA128093C9121092C8121092C712E4
:1048F00080E290E090938912809388128AE999E986
:10490000A1EBB1E48093590290935A02A0935B0209
:10491000B0935C0261E77DE38AE89FE30E945A84DA
:1049200060935502709356028093570290935802F9
:1049300060E070E084EE92E40E946684609351022D
:1049400070935202809353029093540280E090E05F
:10495000A8ECB2E480934D0290934E02A0934F02D4
:10496000B093500284E190E090930D0280930C028A
:104970000E94A6791092070580E090E0A0E4B0E4E0
:104980008093250290932602A0932702B0932802D9
:104990000E942149E3EAFCE08491882341F0909150
:1049A000C00095FFFCCF8093C6003196F5CFE5EFB0
:1049B000F5E08491882341F09091C00095FFFCCFF1
:1049C0008093C6003196F5CF8091C00085FFFCCF63
:1049D0008AE08093C600E0960FB6F894DEBF0FBE63
:1049E000CDBFDF91CF911F910F91FF90EF90DF909E
:1049F000BF90AF900895CF93C82F882369F140915D
:104A0000910E5091920E6091930E7091940E8DEDD7
:104A100095E065D64091950E5091960E6091970E57
:104A20007091980E8AED95E05AD64091990E50916A
:104A30009A0E60919B0E70919C0E87ED95E04FD67B
:104A400040919D0E50919E0E60919F0E7091A00E10
:104A500084ED95E044D62FC0E3EAFCE084918823FE
:104A600041F09091C00095FFFCCF8093C600319635
:104A7000F5CFE5EEF5E08491882341F09091C000F8
:104A800095FFFCCF8093C6003196F5CF8091C00092
:104A900085FFFCCF8AE08093C600E3EAFCE08491C6
:104AA000882309F4ACCF9091C00095FFFCCF809390
:104AB000C6003196F4CF8091C00085FFFCCF8AE01C
:104AC0008093C600CC2369F14091A10E5091A20EB3
:104AD0006091A30E7091A40E81EB95E000D64091F9
:104AE000A50E5091A60E6091A70E7091A80E8EEAA9
:104AF00095E0F5D54091A90E5091AA0E6091AB0EAC
:104B00007091AC0E8BEA95E0EAD54091AD0E5091D4
:104B1000AE0E6091AF0E7091B00E88EA95E0DFD5D1
:104B20002FC0E3EAFCE08491882341F09091C0001B
:104B300095FFFCCF8093C6003196F5CFEAEBF5E008
:104B40008491882341F09091C00095FFFCCF809321
:104B5000C6003196F5CF8091C00085FFFCCF8AE07A
:104B60008093C600E3EAFCE08491882309F4ACCF8B
:104B70009091C00095FFFCCF8093C6003196F4CF92
:104B80008091C00085FFFCCF8AE08093C600CC23D3
:104B900069F14091810E5091820E6091830E709167
:104BA000840E81E895E0ACD54091850E5091860E3B
:104BB0006091870E7091880E8EE795E0A1D54091A7
:104BC000890E50918A0E60918B0E70918C0E8BE73E
:104BD00095E096D540918D0E50918E0E60918F0E7E
:104BE0007091900E88E795E08BD52FC0E3EAFCE04A
:104BF0008491882341F09091C00095FFFCCF809371
:104C0000C6003196F5CFEAE8F5E08491882341F0BB
:104C10009091C00095FFFCCF8093C6003196F5CFF0
:104C20008091C00085FFFCCF8AE08093C600E3EA54
:104C3000FCE08491882309F4ACCF9091C00095FFEB
:104C4000FCCF8093C6003196F4CF8091C00085FFE1
:104C5000FCCF8AE08093C600CC2311F14091790EFD
:104C600050917A0E60917B0E70917C0E8DE395E0F1
:104C700036D54091750E5091760E6091770E7091F9
:104C8000780E8AE395E02BD54091710E5091720E0B
:104C90006091730E7091740E87E395E020D52FC05C
:104CA000E3EAFCE08491882341F09091C00095FFF5
:104CB000FCCF8093C6003196F5CFE6E4F5E0849111
:104CC000882341F09091C00095FFFCCF8093C600EF
:104CD0003196F5CF8091C00085FFFCCF8AE08093AC
:104CE000C600E3EAFCE08491882309F4B7CF9091F1
:104CF000C00095FFFCCF8093C6003196F4CF809121
:104D0000C00085FFFCCF8AE08093C600CC2309F465
:104D100043C040917D0E50917E0E60917F0E709148
:104D2000800E8BE794E0DBD44091610E5091620ECF
:104D30006091630E7091640E88E794E0D0D4409146
:104D4000B10E5091B20E6091B30E7091B40E85E722
:104D500094E0D6D440916D0E50916E0E60916F0E1E
:104D60007091700E82E794E0BAD44091690E509130
:104D70006A0E60916B0E70916C0E8FE694E0AFD46A
:104D80004091650E5091660E6091670E7091680EAD
:104D90008CE694E0A4D42FC0E3EAFCE0849188235D
:104DA00041F09091C00095FFFCCF8093C6003196F2
:104DB000F5CFE4E8F4E08491882341F09091C000BD
:104DC00095FFFCCF8093C6003196F5CF8091C0004F
:104DD00085FFFCCF8AE08093C600E3EAFCE0849183
:104DE000882309F496CF9091C00095FFFCCF809363
:104DF000C6003196F4CF8091C00085FFFCCF8AE0D9
:104E00008093C600CC2311F14091FB045091FC0427
:104E10006091FD047091FE0481E594E060D44091BE
:104E2000FF045091000560910105709102058EE428
:104E300094E055D440910305509104056091050517
:104E4000709106058BE494E04AD42FC0E3EAFCE0BD
:104E50008491882341F09091C00095FFFCCF80930E
:104E6000C6003196F5CFEAE5F4E08491882341F05D
:104E70009091C00095FFFCCF8093C6003196F5CF8E
:104E80008091C00085FFFCCF8AE08093C600E3EAF2
:104E9000FCE08491882309F4B7CF9091C00095FF7E
:104EA000FCCF8093C6003196F4CF8091C00085FF7F
:104EB000FCCF8AE08093C600CC2311F14091D1123F
:104EC0005091D212662757FD6095762F83E294E0C9
:104ED00017D44091CF125091D012662757FD60959C
:104EE000762F80E294E00CD44091CD125091CE12F6
:104EF000662757FD6095762F8DE194E001D42FC091
:104F0000E3EAFCE08491882341F09091C00095FF92
:104F1000FCCF8093C6003196F5CFEFE2F4E08491A8
:104F2000882341F09091C00095FFFCCF8093C6008C
:104F30003196F5CF8091C00085FFFCCF8AE0809349
:104F4000C600E3EAFCE08491882309F4B7CF90918E
:104F5000C00095FFFCCF8093C6003196F4CF8091BE
:104F6000C00085FFFCCF8AE08093C600CC2311F1FE
:104F70004091CB125091CC12662757FD6095762F49
:104F800081E194E0BDD34091C9125091CA126627C5
:104F900057FD6095762F8EE094E0B2D34091C71212
:104FA0005091C812662757FD6095762F8BE094E0EC
:104FB000A7D30DC0E3EAFCE084918823C9F2909165
:104FC000C00095FFFCCF8093C6003196F5CF80914D
:104FD000C00085FFFCCF8AE08093C600CC2309F493
:104FE0003CC04091590250915A0260915B0270910D
:104FF0005C0284EF93E073D3609155027091560286
:1050000080915702909158020E946084AB01BC01CC
:1050100081EF93E064D360915102709152028091CC
:105020005302909154020E946C84AB01BC018EEE3D
:1050300093E055D340914D0250914E0260914F0242
:10504000709150028BEE93E04AD360910C02709104
:105050000D0288EE93E032D32FC0E3EAFCE08491A6
:10506000882341F09091C00095FFFCCF8093C6004B
:105070003196F5CFEDEFF3E08491882341F09091E4
:10508000C00095FFFCCF8093C6003196F5CF80918C
:10509000C00085FFFCCF8AE08093C600E3EAFCE015
:1050A0008491882309F49DCF9091C00095FFFCCF97
:1050B0008093C6003196F4CF8091C00085FFFCCF6D
:1050C0008AE08093C600CC2361F040918812509111
:1050D0008912662757FD6095762F81ED93E010D3F6
:1050E0002EC0E3EAFCE08491882341F09091C00057
:1050F00095FFFCCF8093C6003196F5CFEAEDF3E043
:105100008491882341F09091C00095FFFCCF80935B
:10511000C6003196F5CF8091C00085FFFCCF8AE0B4
:105120008093C600E3EAFCE08491882371F29091B9
:10513000C00095FFFCCF8093C6003196F5CF8091DB
:10514000C00085FFFCCF8AE08093C600CC2361F0CD
:105150004091250250912602609127027091280209
:105160008BEA93E0BCD245C0E3EAFCE0849188235B
:1051700041F09091C00095FFFCCF8093C60031961E
:10518000F5CFEEEBF3E08491882341F09091C000DD
:1051900095FFFCCF8093C6003196F5CF809107052F
:1051A000811103C0E4EBF3E00CC08091C00085FFE7
:1051B000FCCF0EC09091C00095FFFCCF8093C6003D
:1051C000319684918111F6CF8091C00085FFFCCF8C
:1051D0008AE08093C600E3EAFCE08491882309F426
:1051E000B7CF9091C00095FFFCCF8093C600319659
:1051F000F4CF8091C00085FFFCCF8AE08093C60089
:1052000080910705811123C0C1110DC0E3EAFCE0C4
:1052100007C09091C00095FFFCCF8093C6003196E7
:1052200084918111F6CFE1EAF3E007C09091C000CC
:1052300095FFFCCF8093C600319684918111F6CF03
:105240008091C00085FFFCCF8AE08093C600CF919B
:1052500008951F920F920FB60F9211240BB60F9262
:105260002F933F934F935F936F938F939F93EF93FE
:10527000FF936091C6002091C5043091C604C90116
:1052800001968F7799274091C7045091C8048417DD
:10529000950741F0F901EB5BFB4F60839093C604E7
:1052A0008093C504FF91EF919F918F916F915F91D2
:1052B0004F913F912F910F900BBE0F900FBE0F900B
:1052C0001F9018959A01AB01211581EE3807410511
:1052D000510549F182E08093C00060E079E08DE300
:1052E00090E00E94BAB32150310941095109CA0125
:1052F000B90122E030E040E050E00E94BAB33093C0
:10530000C5002093C4008091C10080618093C100DA
:105310008091C10088608093C1008091C100806845
:105320008093C10008951092C00020E130E0E7CFE3
:105330002091C7043091C8048091C5049091C6049F
:105340008217930771F0F901EB5BFB4F80812F5FB0
:105350003F4F2F7733273093C8042093C70490E042
:1053600008958FEF9FEF08958091C7049091C8042E
:105370009093C6048093C50408954F925F926F92F4
:105380007F928F929F92AF92BF92CF92DF92EF92D5
:10539000FF920F931F93CF93DF93CDB7DEB7A09704
:1053A0000FB6F894DEBF0FBECDBF5C0141155105AD
:1053B00061057105E9F420E030E040E350E060E091
:1053C00070E0A0960FB6F894DEBF0FBECDBFDF91A0
:1053D000CF911F910F91FF90EF90DF90CF90BF90F2
:1053E000AF909F908F907F906F905F904F905BC039
:1053F0008E010F5F1F4FC12CD12C76014801422E28
:10540000512C612C712C8FEFC81AD80AE80AF80ABF
:10541000CB01BA01A30192010E9498B3CA01F8011D
:1054200061938F01A901BC01411551056105710509
:1054300051F7F1E0CF1AD108E108F108F401EC0DC1
:10544000FD1D80818A3010F440E301C047E3480F1E
:10545000552747FD5095652F752F20E030E0C50199
:1054600022D081E0C81AD108E108F108EFEFCE168A
:10547000DE06EE06FE0611F7A0960FB6F894DEBF24
:105480000FBECDBFDF91CF911F910F91FF90EF9095
:10549000DF90CF90BF90AF909F908F907F906F9054
:1054A0005F904F9008952115310539F48091C00027
:1054B00085FFFCCF4093C60008952A30310509F4DA
:1054C0001CC05BCFCF93DF93EC0120E030E04DE0D8
:1054D00050E060E070E0E7DF20E030E04AE050E0DC
:1054E00060E070E0CE01DF91CF91DDCF9A01AB019A
:1054F000662757FD6095762FD6CFCF92DF92EF9239
:10550000FF92CF93DF93EC016A017B0177FF0FC01D
:1055100020E030E04DE250E060E070E0C4DFF09465
:10552000E094D094C094C11CD11CE11CF11C2AE071
:10553000B701A601CE01DF91CF91FF90EF90DF90F0
:10554000CF901BCF2115310539F48091C00085FF24
:10555000FCCF4093C600089510CF9A01462F50E02B
:1055600060E070E0EFCFCF93DF93EC019A01AB01E5
:1055700060E070E0E7DFCE01DF91CF91A3CF8F92A3
:105580009F92AF92BF92CF92DF92EF92FF921F93C2
:10559000CF93DF93EC016A017B01122F20E030E012
:1055A000A901C701B6010E94C7AF87FF0CC020E068
:1055B00030E04DE250E060E070E0CE0174DFF7FAD9
:1055C000F094F7F8F094B12C60E070E080E09FE395
:1055D000B11641F020E030E040E251E40E94CEAF4D
:1055E000B394F6CF9B01AC01C701B6010E94EEAEA9
:1055F0006B017C010E943BB04B015C010E9467B0D3
:105600009B01AC01C701B6010E94EDAE6B017C01AC
:105610002AE0B501A401CE01B0DE112341F020E063
:1056200030E04EE250E060E070E0CE013CDF11235C
:1056300019F120E030E040E251E4C701B6010E94D8
:105640009CB26B017C010E9436B04B01AA2497FCEE
:10565000A094BA2CB501A401CE014FDFC501B4015D
:105660000E9469B09B01AC01C701B6010E94EDAE7A
:105670006B017C011150DBCFDF91CF911F91FF9027
:10568000EF90DF90CF90BF90AF909F908F90089554
:1056900076CFFC016591759185919491089561E0B3
:1056A0008CE00C943BAE0E9436AC6093DE047093A9
:1056B000DF048093E0049093E1040895FC012491B9
:1056C000222341F03091C00035FFFCCF2093C6006B
:1056D0000196F4CF4AE050E084E494E007CFFC0167
:1056E0002491222341F03091C00035FFFCCF20935C
:1056F000C6000196F4CF22E030E084E494E0C8CF05
:10570000FC012491222341F03091C00035FFFCCFF1
:105710002093C6000196F4CF2AE030E084E494E0C0
:1057200011CFCF93DF93FC0120812B3309F467C0A5
:1057300020918E0630918F06243031050CF05FC029
:10574000209190063091910640E6429FE001439FF0
:10575000D00D1124C25FDA4FBC01CE010E9431B7D7
:10576000E3EAFCE08491882341F09091C00095FF2A
:10577000FCCF8093C6003196F5CFE7E5FCE084913D
:10578000882371F09091C00095FFFCCF8093C600F4
:105790003196F5CF9091C00095FFFCCF8093C60065
:1057A00089918111F7CFE5E5FCE08491882341F0F0
:1057B0009091C00095FFFCCF8093C6003196F5CF45
:1057C0008091C00085FFFCCF8AE08093C600809165
:1057D000900690919106019664E070E00E9485B376
:1057E000909391068093900680918E0690918F06FB
:1057F000019690938F0680938E0681E001C080E031
:10580000DF91CF910895DF92EF92FF920F931F9354
:10581000CF93DF93CDB7DEB76E970FB6F894DEBFA8
:105820000FBECDBF6091E2047091E3046115710574
:10583000A1F04DE150E08E010F5F1F4FC8010E94A3
:10584000C0B61E8EF8017F01E01AF10AD190DD206A
:1058500031F08AE0D812F7CF02C080E01DC0F80115
:10586000EE0DFF1D1082C8015CDF8823A1F0DD2052
:1058700071F08FEFE81AF80A8091E2049091E30446
:105880008E0D9F1D9093E3048093E20404C0109258
:10589000E3041092E20481E06E960FB6F894DEBF46
:1058A0000FBECDBFDF91CF911F910F91FF90EF9071
:1058B000DF9008959093E3048093E204A4CFE7E09F
:1058C000F1E080818B7F80839FB7F894E8E0F1E07E
:1058D0008081846080839FBF0895999AA1980895DC
:1058E00060E083E10E9402AE61E08CE00E9402AEC3
:1058F0005A9A2E9842E050E06FE47BE280910602D3
:105900000E94F3A961E081E40E9402AE60E081E4BC
:105910000E943BAED4DFE1DF40E052EC61E070E09A
:1059200084E494E0CFDCEFE4FCE08491882341F050
:105930009091C00095FFFCCF8093C6003196F5CFC3
:105940008091C00085FFFCCF8AE08093C600E3EA27
:10595000FCE08491882341F09091C00095FFFCCF3A
:105960008093C6003196F5CF84B780FF14C0E7E47A
:10597000FCE09491992341F02091C00025FFFCCFD9
:105980009093C6003196F5CF9091C00095FFFCCF63
:105990009AE09093C60081FF14C0E7E3FCE0949185
:1059A000992341F02091C00025FFFCCF9093C600C1
:1059B0003196F5CF9091C00095FFFCCF9AE090937F
:1059C000C60082FF14C0E6E2FCE09491992341F006
:1059D0002091C00025FFFCCF9093C6003196F5CFF3
:1059E0009091C00095FFFCCF9AE09093C60083FF92
:1059F00014C0E6E1FCE09491992341F02091C000AD
:105A000025FFFCCF9093C6003196F5CF9091C00052
:105A100095FFFCCF9AE09093C60085FF14C0E6E0A6
:105A2000FCE08491882341F09091C00095FFFCCF69
:105A30008093C6003196F5CF8091C00085FFFCCFE2
:105A40008AE08093C60014BEEFEFFBE084918823C8
:105A500041F09091C00095FFFCCF8093C600319635
:105A6000F5CFEDEFFBE08491882341F09091C000E9
:105A700095FFFCCF8093C6003196F5CF8091C00092
:105A800085FFFCCF8AE08093C600E3EAFCE08491C6
:105A9000882341F09091C00095FFFCCF8093C60011
:105AA0003196F5CFEDEEFBE08491882341F09091A3
:105AB000C00095FFFCCF8093C6003196F5CFECED8A
:105AC000FBE08491882341F09091C00095FFFCCFCA
:105AD0008093C6003196F5CFE0EDFBE084918823FA
